S01C00004672656552544F535F706F72745F70726F64322E7372656300D4
S1130000971100009381018017710020130141FFB3
S11300100A84EF507057EF10E06417450020130571
S11300206553176600201306E641098E8145EF00EB
S11300305070174500201305E5FC970500009385D3
S1130040657D170600001306E650EF6040001705B3
S11300500020130525FB971500009385A5D01706EE
S11300600000130626FAEF50907EEF10606117052A
S11300700000130525F911C517050000130585F8BF
S11300800120EF60E012014581450146EF50304BFD
S10700906F60E017A2
S11300C0B2210000B2210000B2210000862200000B
S11300D0B2210000B2210000B221000086220000FB
S11300E0B2210000B2210000B2210000B2210000C0
S11300F0B2210000B2210000B2210000B2210000B0
S1130100B2210000B2210000B2210000B22100009F
S1130110B2210000B2210000B2210000B22100008F
S1130120B2210000B2210000B2210000B22100007F
S1130130B2210000B2210000B2210000B22100006F
S1130140B2210000B2210000B2210000B22100005F
S1130150B2210000B2210000B2210000B22100004F
S1130160B2210000B2210000B2210000B22100003F
S1130170B2210000B2210000B2210000B22100002F
S10F0180B2210000B2210000B2210000F6
S10701C06F50105414
S1070400FFFFFFFFF8
S1070404FFCFFFFF24
S1130408FFFFFFFFFFFFFFFFFFFFFFFFFFFFFFFFF0
S1130418FCFF0F00FFFF0F00FFFFFFFFFFFFFFFFC1
S1130428FFFFFFFFFFFFFFFFFFFFFFFFFFFFFFFFD0
S1070438FFFFFFFFC0
S1130800FFFFFFFFFFFFFFFFFFFFFFFFFFFFFFFFF4
S113081060450020AAAAAAAA04400020E803000018
S113082000000200FFFFFFFF304400200000000032
S113083003000000E062002000000000000000004F
S11308402840002028400020304000203040002074
S11308503840002038400020404000204040002024
S113086048400020484000205040002050400020D4
S11308705840002058400020604000206040002084
S11308806840002068400020704000207040002034
S113089078400020784000208040002080400020E4
S11308A08840002088400020904000209040002094
S11308B09840002098400020A0400020A040002044
S11308C0A8400020A8400020B0400020B0400020F4
S11308D0B8400020B8400020C0400020C0400020A4
S11308E0C8400020C8400020D0400020D040002054
S11308F0D8400020D8400020E0400020E040002004
S1130900E8400020E8400020F0400020F0400020B3
S1130910F8400020F8400020004100200041002061
S1130920084100200841002010410020104100200F
S113093018410020184100202041002020410020BF
S1130940284100202841002030410020304100206F
S1130950384100203841002040410020404100201F
S113096048410020484100205041002050410020CF
S1130970584100205841002060410020604100207F
S1130980684100206841002070410020704100202F
S113099078410020784100208041002080410020DF
S11309A0884100208841002090410020904100208F
S11309B09841002098410020A0410020A04100203F
S11309C0A8410020A8410020B0410020B0410020EF
S11309D0B8410020B8410020C0410020C04100209F
S11309E0C8410020C8410020D0410020D04100204F
S11309F0D8410020D8410020E0410020E0410020FF
S1130A00E8410020E8410020F0410020F0410020AE
S1130A10F8410020F841002000420020004200205C
S1130A20084200200842002010420020104200200A
S1130A3018420020184200202042002020420020BA
S1130A40284200202842002030420020304200206A
S1130A50384200203842002040420020404200201A
S1130A6048420020484200205042002050420020CA
S1130A70584200205842002060420020604200207A
S1130A80684200206842002070420020704200202A
S1130A9078420020784200208042002080420020DA
S1130AA0884200208842002090420020904200208A
S1130AB09842002098420020A0420020A04200203A
S1130AC0A8420020A8420020B0420020B0420020EA
S1130AD0B8420020B8420020C0420020C04200209A
S1130AE0C8420020C8420020D0420020D04200204A
S1130AF0D8420020D8420020E0420020E0420020FA
S1130B00E8420020E8420020F0420020F0420020A9
S1130B10F8420020F8420020004300200043002057
S1130B200843002008430020104300201043002005
S1130B3018430020184300202043002020430020B5
S1130B402843002028430020304300203043002065
S1130B503843002038430020404300204043002015
S1130B6048430020484300205043002050430020C5
S1130B705843002058430020604300206043002075
S1130B806843002068430020704300207043002025
S1130B9078430020784300208043002080430020D5
S1130BA08843002088430020904300209043002085
S1130BB09843002098430020A0430020A043002035
S1130BC0A8430020A8430020B0430020B0430020E5
S1130BD0B8430020B8430020C0430020C043002095
S1130BE0C8430020C8430020D0430020D043002045
S1130BF0D8430020D8430020E0430020E0430020F5
S1130C00E8430020E8430020F0430020F0430020A4
S1130C10F8430020F8430020004400200044002052
S1130C200844002008440020104400201044002000
S1130C3018440020184400202044002020440020B0
S1130C4000000000E062002048630020B063002040
S1130C500000000000000000000000000000000090
S1130C600000000000000000000000000000000080
S1130C700000000000000000000000000000000070
S1130C800000000000000000000000000000000060
S1130C900000000000000000000000000000000050
S1130CA00000000000000000000000000000000040
S1130CB00000000000000000000000000000000030
S1130CC00000000000000000000000000000000020
S1130CD0000000000000000001000000000000000F
S1130CE00E33CDAB34126DE6ECDE05000B000000D4
S1130CF000000000000000000000000000000000F0
S1130D0000000000000000000000000000000000DF
S1130D1000000000000000000000000000000000CF
S1130D2000000000000000000000000000000000BF
S1130D3000000000000000000000000000000000AF
S1130D40000000000000000000000000000000009F
S1130D50000000000000000000000000000000008F
S1130E00B702100032051305353312050D0523A072
S1130E10A200FD52370300E6232653002322A30039
S1130E20232453002320A3008280FD52370300E6CD
S1130E302103232053002322B3002320A300828014
S1130E40370300E6832543000325030082807D15D4
S1130E507DFD8280F322003093F272FF1303801829
S1130E601203B3E26200711523205500711523208B
S1130E700500130585FA10C121159732002083A2BD
S1130E80226F2320550081426387020071152320BD
S1130E900500FD12D5BF71150CC1828017310020E9
S1130EA00321416D02418240C2435244E2447245EF
S1130EB082551256A2563257C2575258E2587259A6
S1130EC08649164AA64A364BC64B564CE64C764DD6
S1130ED0865D165EA65E365FC65FD6521733002067
S1130EE00323C31223205300E652A102739002305D
S1130EF0A24232431301C1078280F32220347323B8
S1130F001034F323003001A0F3222034732310346F
S1130F10F323003001A0F322203473231034F3238D
S1130F20003001A0F322203473231034F323003063
S1130F3001A03D432A876373C3029377F700BDEF93
S1130F40ADE5937606FF3D8ABA960CC34CC30CC735
S1130F504CC74107E36BD7FE11E28280B306C3405E
S1130F608A069702000096966780A6002307B700BA
S1130F70A306B7002306B700A305B7002305B700EF
S1130F80A304B7002304B700A303B7002303B700E7
S1130F90A302B7002302B700A301B7002301B700DF
S1130FA0A300B7002300B700828093F5F50F939652
S1130FB08500D58D93960501D58D61B7939627004D
S1130FC09702000096968682E78086FA9680C1177B
S1130FD01D8F3E96E374C3F8A5B7371504408325E7
S1130FE08580939505492324B58083258580BD9903
S1130FF02324B58083258580ED992324B58083251A
S113100085809395F5282324B580832505869395BB
S1131010E5282320B58683250586ED992320B5860A
S11310208280411106C622C426C24AC0296593059E
S1131030B55037E50140231FB53E8345A50A8345D6
S1131040050A85C98345650399E5B7E5014003C6EB
S1131050C503058A6DDEB7E5014003C6050A418A6A
S11310606DFEB7E501402380050A03C6050A418ADF
S11310706DFE2303050203456503058909C937E5A8
S1131080014093050002A30BB502230B050237E5CB
S113109001408345C5038589EDDD37E5014083457E
S11310A02503858981E585452309B502034505485E
S11310B005890DC537450F00930505241305B009AF
S11310C0412237E50140A3000548230105482300D8
S11310D005481305401F9305803E9D22B7E4014057
S11310E005492388244937450F00130405241305B3
S11310F0B009A285B122238C24030D45A28589223F
S1131100A388240337057F40230225FD03C5A40AD1
S113111003C5040A05C903C5640319E537E501409D
S11311208345C5038589EDDD37E501408345050A1F
S1131130C189EDFD37E501402300050A8345050A11
S1131140C189EDFD114588D0238A0404296513055E
S11311500550239FA43EB2402244924402494101D7
S1131160828037E50140830565021146636AB60053
S11311703776000013068643B3C5C5208C4129A0E9
S1131180B7157A009385052008511605758133D566
S1131190A5008280B7E5014003C6050A6309A602DB
S11311A083C5650399E5B7E5014003C6C503058A10
S11311B06DDEB7E5014003C6050A418A6DFEB7E559
S11311C001402380A50A03C5050A41896DFD82807B
S11311D089456312B50237E501408345A50AC189F3
S11311E0EDFD37E5014085452305B50A8345A50A8C
S11311F0C189EDFD81A0B7E5014003C6A50A03C678
S1131200050A6309A60283C5650399E5B7E50140AC
S113121003C6C503058A6DDEB7E5014003C6050AAA
S1131220418A6DFEB7E501402380A50A03C5050A7E
S113123041896DFD82804165290582801DB701B910
S1131240797106D622D426D22E84AA84193FB745B2
S11312500F00938505242AD06316B4000255333554
S1131260950255C1825533859502B3B59502228600
S11312708146EF60400A2EC62AC43245A24593B582
S11312805551133515006D8D01ED3245A245138678
S1131290C5AEB335B6002E957D1532C42AC619A045
S11312A002C602C43245A2453386A500B336B60051
S11312B03696B7B6AAAA1387B6AAB337E60293D46A
S11312C01700F99BA6971D8EB387C5409386A6AADF
S11312D0B386D702B3B4E702A696B3B5C5000D8DA5
S11312E03305E5023695B385E7022EC82ACA42457E
S11312F0D2450945B9EDD2454246D18DB9C95245C9
S113130042452ACE91A0025533059502B7E51B4309
S1131310938535E83335B50249812AC8424593059A
S1131320B0056367B5004245130565FA2AC811A0E4
S113133002C84245B7B5AAAA9385B5AA3335B50202
S113134005812ACE724509C572451136014511A0A1
S11313500945B2502254925445618280B745002019
S11313609385C55CB325B52003D6050011C6039645
S113137005007D162390C50083D5050091C18280A8
S1131380914563CFA5008D456301B5049145631C68
S1131390B504372500409305000F2302B50C828065
S11313A09545630BB5029945631FB5023715044093
S11313B0834535D093F5F50BA301B5D0834535D0DE
S11313C093E50508A301B5D0828037250040930535
S11313D0000F2302B5008280372500409305000FDB
S11313E02308B50C8280B7E501400396E53FB77644
S11313F000009386C6443325D52003150500A9664D
S113140093860650558E3375A640239FA53E828051
S1131410B74500209385C55CB325B52003D60500E8
S113142019C60395050005052390A5008280114681
S1131430634FA6000D466301C5041146631CC50431
S1131440372500401306100F2302C50CD9BF1546DB
S1131450630BC5021946631FC502371504400346D2
S113146035D01376F607A301C5D0034635D01366ED
S11314700604A301C5D075B7372500401306100F25
S11314802302C50079BF372500401306100F230837
S1131490C50C41BF37E601408316E63F37770000AD
S11314A01307C7443325E5200315050029671307EF
S11314B00750D98E558D231FA63EA5B7374500206A
S11314C01305C55C9D4523100500FD150905E5FDC3
S11314D0828037A501400C4193E525000CC13715E6
S11314E000E28345D50193F5E50FA30EB500BD4594
S11314F0A30FB5001306300C230FC5008346D50097
S113150093F6E60FA306D500A307B5002307C5008D
S11315108280411106C622C4153302C22AC0024584
S113152092451306800CB385C502B336C502B69541
S11315303306C5021305863E3336C500B29513063D
S1131540007D8146EF50305D37440020232AB45497
S11315502328A454F5300326045583264455B69510
S113156032953336C500B295C93037A501400C41D8
S113157093E515000CC1371500E28345D50193E5C9
S11315801500A30EB500B2402244410182804111EE
S113159006C66D3102C22AC0024592451306800C6C
S11315A0B385C502B336C502B6953306C502130525
S11315B0863E3336C500B2951306007D8146EF5052
S11315C09055B24041018280411106C69538374694
S11315D000208326065503264655B29536953336A4
S11315E0D500B295B240410189B0371500E2834578
S11315F0D50193F5E50FA30EB50037A501400C41C5
S1131600F9990CC139B0371500E68325C5FFF9995E
S1131610232EB5FEB71500E203C6D50013661600E7
S1131620A386C5008325C5FF93E51500232EB5FECB
S11316308280371500E28345D50093F5E50FA306B4
S1131640B500371500E68325C5FFF999232EB5FEAD
S11316508280411106C69D35010001009D3DB240C6
S1131660410181AA411106C66D3A37057F40834581
S113167085FC93E515002304B5FCB240410182804A
S1131680C9BF377504400C45939505490CC5828044
S1131690377504400C45939505290CC582806F006D
S11316A0903E730020306F00103E730020306F00B6
S11316B05030730020306F00D02F730020306F0043
S11316C0502F730020306F00D02E730020306F0035
S11316D0502E82806F00F02D730020306F00702D2B
S11316E0730020306F00F02C730020306F00702CDA
S11316F0730020306F00F02B730020306F00702BCC
S1131700730020306F00F02A730020306F00702ABD
S1131710730020306F00F029730020306F007029AF
S1131720730020306F00F02882806F0090287300CF
S113173020306F001028730020306F009027730052
S113174020306F001027730020306F009026730044
S113175020306F001026730020306F009025730036
S113176020306F001025730020306F009024730028
S113177020306F001024730020306F00902373001A
S113178020306F001023730020306F00902273000C
S113179020306F001022730020306F0090217300FE
S11317A020306F001021730020306F0090207300F0
S11317B02030411106C6A14273900230194589397F
S11317C00128112835211D2B1945B240410179B654
S11317D009A082808280371504408545A307B5D0CF
S11317E023260586232405862322058623200586B1
S11317F0232E0584232C0584232A05842328058489
S1131800232605842324058423220584914523204B
S1131810B584370504402317050223160502C1AE1B
S11318202A868346050013051008A1CE81461307B6
S113183016008347070085060507E5FFB3C60608BB
S113184011476390E604834616004167130707DFD8
S11318508347260003463600BA969386061EB3C70E
S1131860F72033A6C7203A9613B73500B3C6060847
S113187093B756007D8F33460608933706017D8F54
S113188011E3828005453316C028638BA502094500
S1131890639DA50405456341D508FDCE0545639ABE
S11318A0A616B7050440039585023375C5402394F5
S11318B0A5028396A5020145558E2395C502828013
S11318C06341D508EDCA05456393A618B7050440DE
S11318D00395A5023375C5402395A5028396850219
S11318E00145558E2394C502828005456340D50881
S11318F0F5C20545639CA618B70504400395A502E7
S11319003375C5402395A50283968502014533F6B8
S1131910C6402394C50282800945638DA60C0D45FB
S11319206399A60EB7050440039585063375C54033
S11319302394A5068396A5060145558E2395C506D1
S1131940828009456386A60E0D456392A610B705ED
S113195004400395A5063375C5402395A5068396D3
S113196085060145558E2394C50682800945638FFB
S1131970A60E0D45639CA610B70504400395A50665
S11319803375C5402395A50683968506014533F630
S1131990C6402394C5068280B7050440039585009C
S11319A03375C5402394A5008396A5000145558E43
S11319B02395C5008280B70504400395A5003375BF
S11319C0C5402395A500839685000145558E239433
S11319D0C5008280B70504400395A5003375C54052
S11319E02395A50083968500014533F6C6402394CC
S11319F0C5008280B7050440039585043375C5404E
S1131A002394A5048396A5040145558E2395C50406
S1131A108280B7050440039585083375C540239437
S1131A20A5088396A5080145558E2395C50882808F
S1131A30B70504400395A5043375C5402395A50453
S1131A40839685040145558E2394C5048280B70589
S1131A5004400395A5083375C5402395A5088396CE
S1131A6085080145558E2394C5088280B705044036
S1131A700395A5043375C5402395A5048396850471
S1131A80014533F6C6402394C5048280B70504405B
S1131A900395A5083375C5402395A5088396850845
S1131AA0014533F6C6402394C50882802A868346BE
S1131AB0050013051008ADC68146130716008347B9
S1131AC0070085060507E5FFB3C6060811476399B5
S1131AD0E604834616004167130707DF83472600A1
S1131AE003463600BA969386061EB3C7F72033A67C
S1131AF0C7203A9613B7350013471700B3C6060834
S1131B0093B716005D8F93B7360093C717005D8FA8
S1131B10334606089337060193C717005D8F11C338
S1131B20828005473316C0286388E5020945639718
S1131B30A50485451345F6FF6395B606B70504402D
S1131B408396C502758D2396A5028396E502014509
S1131B50558E2397C50282801345F6FFB7050440CE
S1131B60639FE6048396E502758D2397A502839609
S1131B70C5020145558E2396C502828005459345CD
S1131B80F6FF370604406398A6040315E6026D8D3C
S1131B902317A6028316C6020145F58D2316B60245
S1131BA08280B70504408396C504758D2396A504E9
S1131BB08396E5040145558E2397C5048280839658
S1131BC0E504758D2397A5048396C5040145558EB8
S1131BD02396C50482800315E6046D8D2317A6049D
S1131BE08316C6040145F58D2316B60482808280CF
S1131BF0371500E28345D50593F5E50FA30EB5042B
S1131C00B765004003A605311316064923A8C5305D
S1131C1037160440832606869396E6282320D68624
S1131C2083260686ED9A2320D68603C645001376BE
S1131C30F6072382C500238205001306F00FA30FC5
S1131C40C5041306300C230FC50403A505310199FF
S1131C5023A8A53003A505311365650123A8A53084
S1131C6099A03765004083250531939505492328BC
S1131C70B530371500E28345D50593E51500A30E6D
S1131C80B5048280371500E28345D50593F5E50F49
S1131C90A30EB504376500408325053193950549A6
S1131CA02328B5308280828001112ACE2ECC32CAFC
S1131CB036C83AC6374500208325C5009306803EC2
S1131CC01307800C130640066384E5001306803E68
S1131CD06394D5001306800C2326C50037650040A5
S1131CE083250531939505492328B5307245E2458E
S1131CF05246C2463247056173002030411106C680
S1131D00377504400C45939505490CC5371500E219
S1131D108345950893F5E50FA304B508B76500401E
S1131D2003A6C5331316064923AEC5323D46A305A3
S1131D30C5081306300C2305C50803A5C53301994E
S1131D4023AEA53203A5C5331365F50123AEA53231
S1131D503715044083258580939505492324B58050
S1131D6083258580BD992324B58083258580ED99BD
S1131D702324B580832585809395F5282324B58075
S1131D8037C5094023000500230105002308050881
S1131D909305F00FA308B50823090508A30005005F
S1131DA08345050993F5F5032308B508834505091B
S1131DB02308B5081305D004EFF06FC8B240410101
S1131DC015A2376500408325C53393950549232E15
S1131DD0B532371500E28345950893E51500A30451
S1131DE0B50837C509408345050093E50508230078
S1131DF0B5008280411106C637C5094083450500F8
S1131E0093F5F5072300B5001145EFF04FC33715DF
S1131E1000E28345950893F5E50FA304B5083765FB
S1131E2000408325C53393950549232EB532B2402E
S1131E3041018280B7C5094003C50500136615003A
S1131E40130560022380C5006FF06FBF37C50940DA
S1131E508345050093F5E50F2300B500828037C55F
S1131E6009408345050993E545002308B5088280A8
S1131E7037C509408345050993F5B50F2308B5080F
S1131E808280B7C5094083D5050A99812310B5001E
S1131E9082801306A5FFA946930510086361D60244
S1131EA01306C5FE1336C6069336250893C61600D8
S1131EB0558E11E6814537C60940A300A6002E853C
S1131EC082809305F5FFB335B000133645006D8E5F
S1131ED09305100811C6814537C60940A309A60811
S1131EE02E858280828041112AC62EC43765004027
S1131EF08325C53393950549232EB5323245A24532
S1131F00410173002030411106C622C42A843D8950
S1131F1001C93D1563748500014419A04198410429
S1131F20EF10B056374500208325855591C90DE043
S1131F30EF10706639CC2285B24022444101828080
S1131F40B74500209385955EC199232CB5546DD077
S1131F50374500200325C5559345F4FF63E7A502E3
S1131F60B305850013D645009306E01363EFC6005E
S1131F7037460020032486552A9437450020232E13
S1131F80B554EF10506145F829A00144EF10B0603A
S1131F905DF0EF30D05E45B709C937750000130511
S1131FA00549930570096F30505D828037450020E4
S1131FB0232E05548280374500200325C5558565A9
S1131FC09385053F3385A540828037450020232E25
S1131FD0055482804111732540F12AC63245B70564
S1131FE000E6138685003365C52037460020232488
S1131FF0A656D0419441D841E31DE6FEB1659385D0
S113200005B83387B600B336D7003696B7460020F6
S113201023A2C65623A0E65650C118C103A50656EE
S113202003A64656AA9533B5A500329523A0B65605
S113203023A2A65641018280411106C637650020BD
S11320401305059E9305E00E1306007DEFE07FEE79
S1132050513745451E0573204530EFE03FE4014507
S1132060B2404101828001A0130141F806C216C4A6
S11320701AC61EC822CA26CC2ACE2ED032D236D4B4
S11320803AD63ED842DA46DC4ADECEC0D2C2D6C404
S1132090DAC6DEC8E2CAE6CCEACEEED0F2D2F6D494
S11320A0FAD6FED89722002083A202F696DAF3220B
S11320B0003096DC9722002083A2C24B23A022008A
S11320C0732520341375F50FF325103491052EC0B4
S11320D0175100000321813EAD4263175506EF20DE
S11320E0402F172300200323E348032103008242E7
S11320F073901234E65273900230D65217230020A4
S11321000323C3F0232053009240A2423243C2432C
S11321105244E244724582551256A2563257C2576F
S11321205258E25872598649164AA64A364BC64B4B
S1132130564CE64C764D865D165EA65E365FC65FEF
S11321401301C10773002030EF30F0431723002040
S11321500323434203210300824273901234E65264
S113216073900230D65217230020032323EA23203E
S113217053009240A2423243C2435244E244724565
S113218082551256A2563257C2575258E2587259C3
S11321908649164AA64A364BC64B564CE64C764DF3
S11321A0865D165EA65E365FC65F1301C1077300C7
S11321B02030130141F806C216C41AC61EC822CA2A
S11321C026CC2ACE2ED032D236D43AD63ED842DAD3
S11321D046DC4ADECEC0D2C2D6C4DAC6DEC8E2CA03
S11321E0E6CCEACEEED0F2D2F6D4FAD6FED89722D6
S11321F0002083A262E196DAF322003096DC972273
S1132200002083A2223723A0220073252034F32543
S113221010342EC0175100000321412AEF309036AC
S11322201723002003230335032103008242739004
S11322301234E65273900230D6521723002003233F
S1132240E3DC232053009240A2423243C24352446F
S1132250E244724582551256A2563257C25752581A
S1132260E25872598649164AA64A364BC64B564C12
S1132270E64C764D865D165EA65E365FC65F13013C
S1132280C10773002030130141F806C216C41AC6F0
S11322901EC822CA26CC2ACE2ED032D236D43AD662
S11322A03ED842DA46DC4ADECEC0D2C2D6C4DAC652
S11322B0DEC8E2CAE6CCEACEEED0F2D2F6D4FAD642
S11322C0FED89722002083A222D496DAF32200308B
S11322D096DC9722002083A2E22923A02200732502
S11322E02034F32510342EC0175100000321011DA2
S11322F017250020032585279725002083A585D051
S11323007D579041D44118C154C110C19752000067
S113231083A2021B3387C2003333C700B383660032
S113232098C123A27500EF20004719C1EF20600A6D
S11323301723002003230324032103008242739004
S11323401234E65273900230D6521723002003232E
S1132350E3CB232053009240A2423243C24352446F
S1132360E244724582551256A2563257C257525809
S1132370E25872598649164AA64A364BC64B564C01
S1132380E64C764D865D165EA65E365FC65F13012B
S1132390C1077300203000000000000000000000AE
S11323A00000000000000000000000000000000029
S11323B00000000000000000000000000000000019
S11323C00000000000000000000000000000000009
S11323D000000000000000000000000000000000F9
S11323E000000000000000000000000000000000E9
S11323F000000000000000000000000000000000D9
S1132400130141F806C216C41AC61EC822CA26CC35
S11324102ACE2ED032D236D43AD63ED842DA46DC50
S11324204ADECEC0D2C2D6C4DAC6DEC8E2CAE6CC20
S1132430EACEEED0F2D2F6D4FAD6FED89722002015
S113244083A282BC96DAF322003096DC9722002025
S113245083A2421223A0220073252034F3251034D2
S1132460635805002EC0175100000321210501A85F
S113247091052EC0175100000321410499A88542FB
S1132480FE021383720063136504172500200325DD
S1132490E50D9725002083A5E5B67D579041D441ED
S11324A018C154C110C19752000083A2620133873E
S11324B0C2003333C700B383660098C123A27500FA
S11324C0EF20602D15C1EF10D07039A8EF30900BBC
S11324D021A81375F50FAD4263155500EF10706F09
S11324E021A0EF30500A09A01723002003238308FA
S11324F003210300824273901234E6527390023037
S1132500D65217230020032363B0232053009240A4
S1132510A2423243C2435244E244724582551256A7
S1132520A2563257C2575258E25872598649164A2F
S1132530A64A364BC64B564CE64C764D865D165E27
S1132540A65E365FC65F1301C10773002030930592
S113255085004CC17D5610C54CC50CC9232005000F
S113256082802328050082805041D0C1144694C53E
S11325701446CCC20CC688C90C4185050CC18280A6
S113258094417D56638AC600130785003A865843F2
S11325901C43E3FDF6FE11A010495442D4C18CC67D
S11325A090C54CC288C90C4185050CC18280104578
S11325B054410C4990C650411445D0C2D0416314D3
S11325C0A6001045D0C12328050088417D1588C187
S11325D08280411106C622C419C92A84505D05456A
S11325E009C634403336D60211CE014469A037758A
S11325F000001305854693057013EF3000780144FD
S1132600054595A87370043037450020032645001E
S113261005062322C500485C304014403307A60257
S1132620369718C4232C040254C07D153305C50203
S1132630369548C41305F00F2302A404A302A4048E
S11326401305040191C5213713054402093701A874
S11326500C4191C5EF20500419C1730000003745A7
S1132660002083254500FD152322B50005440145BE
S113267099E17360043009C9377500001305854674
S11326809305C016EF30606F2285B24022444101A9
S11326908280411106C622C426C24AC01DCD2E899D
S11326A0AA843335B50215E933059902930570FB05
S11326B063E5A50213058504B93005C92A841335D9
S11326C019007D1513758504229508C044DC232068
S11326D0240585452285F53D11A8377500001305AD
S11326E085469305A022EF30406901442285B2401B
S11326F022449244024941018280411106C622C407
S11327001305800409301DC92A8408C1054548DC25
S113271023200404854522856D3D01CC2324040037
S11327202320040023260400228581450146814696
S1132730F1282285B240224441018280014479FC7F
S1132740CDBF411106C622C42A8409E937750000A9
S1132750130585469305802BEF3020627370043097
S11327603746002083254600138515002322A60042
S1132770084019C901452322B60099E17360043069
S1132780B24022444101828008442322B600EDF97C
S1132790F5B7411106C622C42A8409C5084009CDEB
S11327A0014521A837750000130585469305C02D02
S11327B0EF30A05C08406DF50844B240224441016A
S11327C08280411106C622C426C22A8409E93775CB
S11327D00000130585469305B02FEF30005A0444DA
S11327E0EF20701F6384A400814419A848447D1518
S11327F048C4854411E52285814501468146392036
S11328002685B2402244924441018280797106D6E1
S113281022D426D24AD04ECE52CC56CA5AC8368A70
S11328202E892A8432C601C56317090219A837758F
S11328300000130585469305603BEF300054631C8C
S11328400900284009C9377500001305854693051A
S1132850703BEF3080520945631EAA00485C8545F1
S1132860630AB50037750000130585469305803B60
S1132870EF30A05073700430B745002003A5450025
S11328801306150023A2C5000C5C505C9306EAFFF6
S113289093BA1600B3B5C500B3E5BA0095CD045C90
S11328A030406303061263090A124844CA85EF30B4
S11328B0007A28404C441040898D4CC463F7C5000D
S11328C00C443305A0402E9548C40145B33590000F
S11328D0B3F5BA008D8C15AAB2456380050E930931
S11328E004014800EF20A07FB7440020130BF00F31
S11328F003A544007D1523A2A40019E173600430EC
S1132900EF10A0387370043003A54400930515003C
S113291023A2B400834544046389650583455404B4
S1132920638B650523A2A40021CD48006C00EF2031
S1132930607C61E17370043003A644001305160043
S113294023A2A400085C4C5C23A2C4000DCE631037
S1132950B504B2454E85EF2040472285C92EEF10BD
S1132960804315E9730000003DA02302040483455D
S11329705404E39965FBA302040423A2A40055F5BF
S1132980736004305DB773600430E304B5FC2285E2
S1132990792EEF1040407370043003A54400930572
S11329A0150023A2B4000C5C505CB3B5C500B3E5BC
S11329B0BA00E39605EEB24585FDB745002023A293
S11329C0A50015CD0145A5A8084015E10844EF2050
S11329D0D00F2324040015A84840CA85EF3020678F
S11329E028404C4010442E9548C0637DC5000145E5
S11329F029A822852D2EEF10003A014589A0736085
S1132A00043035A80C4001454CC0850404DC4C500E
S1132A1089C913054402EF20204819C5730000003A
S1132A2021A019C17300000037450020832545000B
S1132A30FD152322B500054599E173600430B250B9
S1132A40225492540259F249624AD24A424B456195
S1132A508280411106C622C426C24AC02E892A8415
S1132A6009E9377500001305854693057033EF3087
S1132A70C0300444EF2020766387A4002285CA85F1
S1132A80292819E129A005454C4485054CC4B240C8
S1132A9022449244024941018280797106D622D4AB
S1132AA026D24AD04ECE52CC56CA5AC85EC62A84C2
S1132AB02EC409E93775000013058546930520687F
S1132AC0EF30A02B284009C937750000130585464F
S1132AD093056068EF30602A8149814B930A0401B1
S1132AE013094402B7440020130BF00F19A0630329
S1132AF005187370043003A544009305150023A240
S1132B00B4000C5C89C9FD150CDC084009CD03A593
S1132B100A0005E12DA0A245A9C1054563860B0461
S1132B20854B39ED49AAEF20701708C403A50A00A4
S1132B3019C55685EF20403619C17300000003A55E
S1132B4044007D1523A2A400054A01C501450DE9F1
S1132B509DA2736004300DE5B9AA23A2A40001CD9F
S1132B600145014A11ED81AA0A85EF204057854BA2
S1132B70054519E589A2014A73600430630D051205
S1132B8003A544007D1523A2A40019E17360043059
S1132B90EF10A00F7370043003A5440093051500D3
S1132BA023A2B40083454404638265058345540429
S1132BB06384650523A2A40029C50A852C00EF209F
S1132BC0605339C12285A522EF10E01C73700430D4
S1132BD083A544001385150023A2A400085C23A246
S1132BE0B400E39605F07360043011B723020404C3
S1132BF083455404E39065FDA302040423A2A400C6
S1132C004DFD7360043055BF7370043083A54400D8
S1132C101385150023A2A400085C23A2B40099E143
S1132C207360043011C522851922EF10C016D1B586
S1132C30084005E57370043003A54400050523A28C
S1132C40A4000844EF20C05A83A54400AA89FD15B6
S1132C5023A2B40099E173600430A2454A85EF20B1
S1132C60C0162285E920EF100013E31405E8730071
S1132C70000041B56382090273700430B744002038
S1132C8003A54400050523A2A400485001C908581F
S1132C9008419D45898D21A0014A31A881450844F8
S1132CA0EF20A06F03A544007D1523A2A400014AD0
S1132CB019E1736004305285B2502254925402597F
S1132CC0F249624AD24A424BB24B45618280411179
S1132CD006C622C426C24AC02E892A84133515008A
S1132CE0B335B4004D8D19C93775000013058546F9
S1132CF09305F039EF306008814405A01305800482
S1132D00EFF06FA015C1AA8408C140DD232005049B
S1132D108545C13099C023AC24032685B2402244A2
S1132D2092440249410182808144F5F4FDB70111C6
S1132D3006CE22CC26CA4AC84EC652C4737004308A
S1132D403749002083254900AA8985052322B90033
S1132D50030455046354800293844902054A31A054
S1132D60131544607D14635BAA00884001C926855D
S1132D70EF20801275D5EF204045DDB71305F00F25
S1132D80A382A904032549007D152322A90019E182
S1132D907360043073700430374900200325490000
S1132DA005052322A9000384490463548002938403
S1132DB00901054A31A0131544607D14635BAA0020
S1132DC0884001C92685EF20200D75D5EF20E03F0E
S1132DD0DDB71305F00F2382A904032549007D15EF
S1132DE02322A90019E173600430F2406244D24402
S1132DF04249B249224A05618280797106D622D4B9
S1132E0026D24AD04ECE52CC56CA5AC85EC6B684D2
S1132E103289AE892A8401C56397090219A83775D6
S1132E2000001305854693050049EF201075639C47
S1132E300900284009C93775000013058546930524
S1132E401049EF2090730945639EA400485C8545B2
S1132E50630AB500377500001305854693052049BC
S1132E60EF20B071085C4C5C1386E4FF933B1600C2
S1132E703335B50033E5AB0031C1830A5404085C33
S1132E80032B8403304013FAFA0F1DCAB1C048441F
S1132E90CE85EF30C01B28404C441040898D4CC473
S1132EA063F7C5000C443305A0402E9548C4333560
S1132EB0600133F5AB00330BAB4005A8814451A04E
S1132EC0084005E50844EF2040402324040031A8CD
S1132ED04840CE85EF30A01728404C4010442E9532
S1132EE048C06364C500084048C0050B1305F00FD3
S1132EF0232C64036307AA02EF109026854463F22F
S1132F00AA041305F007631AAA0037750000130515
S1132F1085469305E051EF205066050AA302440557
S1132F200DA04850854411CD13054402EF10D0760E
S1132F3013351500933519004D8D01E58544232083
S1132F4099002685B250225492540259F249624A99
S1132F50D24A424BB24B45618280011106CE22CC4B
S1132F6026CA4AC84EC652C42E892A8441C528405E
S1132F7009C9377500001305854693054054EF20B1
S1132F80D05F084019E9084409C9377500001305E2
S1132F90854693059054EF20505E085C4C5C637149
S1132FA0B5048304540493F9F40F05059305F00F55
S1132FB008DC638CB904EF10B01A054A63F3A40269
S1132FC01305F007639AA9003775000013058546B9
S1132FD09305B05CEF20705A8509A302340511A053
S1132FE0014A5285F2406244D2444249B249224ADB
S1132FF005618280377500001305854693050054EA
S1133000EF20B057284035F5ADBF4850054A71D977
S113301013054402EF105068133515009335190059
S11330204D8D61F1054A2320490165BF397106DEE2
S113303022DC26DA4AD84ED652D456D25AD05ECEA4
S113304062CC2E89AA8432CA01C56317090219A861
S113305037750000130585469305905EEF20F05107
S1133060631C0900A84009C937750000130585468B
S11330709305D05EEF207050814B138A040193892D
S11330804402374C0020130BF00F19A0630E0514F3
S11330907370043003254C00930515002322BC00F3
S11330A0805C39C0B04009CEC8448C443295C8C451
S11330B06364B5008840C8C4CC444A85EF203079A5
S11330C07D1480DC884819C55285EF10F05C19C165
S11330D07300000003254C007D152322AC00854AB3
S11330E001CD014505ED11A2D24599C9054563817C
S11330F00B02854B05E5D5A87360043005E1F5A006
S11331002322AC00814A71FD7360043001E9F1A807
S11331106800EF10D07C854B054561C903254C0040
S11331207D152322AC0019E173600430EF00F03503
S11331307370043003254C00930515002322BC0052
S113314083C544046382650583C5540463846505AB
S11331502322AC0029C568004C08EF10B07939C1AE
S11331602685F136EF0030437370043083254C001C
S1133170138515002322AC00885C2322BC00E3974E
S113318005F07360043019B72382040483C5540422
S1133190E39065FDA38204042322AC004DFD73601B
S11331A0043055BF7370043083254C00138515001B
S11331B02322AC00885C2322BC0099C509C926855A
S11331C0BD36EF00503DE9B5736004306DF9D2456A
S11331D04E85EF10903F2685993EEF00D03BE319D2
S11331E005EA730000006DB5814A5685F2506254B9
S11331F0D2544259B259225A925A025BF24B624C4F
S113320021618280797106D622D426D24AD04ECE4C
S113321052CC56CA5AC85EC62E89AA8432C401C585
S11332206317090219A8377500001305854693052D
S11332301076EF209034631C0900A84009C9377543
S113324000001305854693055076EF201033014B9B
S113325093894402B74B0020930AF00F19A0630E20
S113326005147370043003A54B009305150023A2C5
S1133270BB008C5CB9C1B040C04409CE8844B305DE
S1133280C400CCC463E4A5008840C8C4CC444A85C7
S1133290EF20F05BC850C0C419C54E85EF10D03F75
S11332A019C17300000003A54B007D1523A2AB00D8
S11332B0054A01CD014505ED11A2A24599C905456F
S11332C063010B02054B05E5D5A87360043005E1E5
S11332D0F5A023A2AB00014A71FD7360043001E93B
S11332E0F1A80A85EF10B05F054B054561C903A538
S11332F04B007D1523A2AB0019E173600430EF008D
S1133300D0187370043003A54B009305150023A255
S1133310BB0083C544046382550583C55404638498
S1133320550523A2AB0029C50A852C00EF10905C3B
S113333039C12685ED3AEF0010267370043083A559
S11333404B001385150023A2AB00885C23A2BB00AD
S1133350E39705F07360043019B72382040483C52E
S11333605404E39055FDA382040423A2AB004DFD55
S11333707360043055BF7370043083A54B0013850C
S1133380150023A2AB00885C23A2BB0099C509C920
S11333902685713AEF003020E9B5736004306DF989
S11333A0A2454E85EF10702226855132EF00B01EE3
S11333B0E31905EA730000006DB5014A5285B25065
S11333C0225492540259F249624AD24A424BB24BB5
S11333D045618280011106CE22CC26CA4AC84EC657
S11333E052C456C23289AE8A2A8401C563970A023E
S11333F019A837750000130585469305D07FEF2083
S1133400D017639C0A00284009C9377500001305CA
S113341085469305E07FEF205016045CBDCC030A7B
S1133420440430409379FA0F09CE48440C44329551
S113343048C46364B500084048C44C445685EF2032
S11334401041FD141305F00F04DC6388A902EF108A
S1133450205185446373AA041305F007639BA900F4
S11334603775000013058546856593854584EF20EF
S1133470D0108509230234050DA00848854411CDD8
S113348013050401EF10502113351500933519006D
S11334904D8D01E58544232099002685F240624440
S11334A0D2444249B249224A924A0561828041117A
S11334B006C622C426C24AC02E892A8401C56319BD
S11334C0090221A837750000130585468565938593
S11334D01586EF20900A631D0900284011C937752D
S11334E0000013058546856593852586EF20F00841
S11334F0284001C5085C09ED2DA8377500001305A7
S11335008546856593853586EF203007085C15C1AF
S11335103040444409CE0844B385C4004CC463E439
S1133520A500084048C44C444A85EF20503244C4A6
S11335300545B2402244924402494101828041112E
S113354006C622C42A8411E937750000130585468E
S113355085659385B589EF20500273700430B745B3
S1133560002003A645001305160023A2A500085C4D
S113357023A2C50019E273600430B2402244410121
S11335808280411106C622C42A8411E937750000DD
S11335901305854685659385058BEF20007E737042
S11335A00430374600208326460013851600232264
S11335B0A600485C0C5C2322D60099E273600430B8
S11335C00D8DB240224441018280411106C622C4BD
S11335D02A8411E9377500001305854685659385AE
S11335E0558CEF208079085CB240224441018280EE
S11335F0411106C622C426C24AC02A8405E1377591
S113360000009304854605699305498D2685EF20BE
S1133610C0769305D9C12685EF2020763765002032
S11336201305451BA145104163068600FD152105C0
S1133630FDF929A0232E05FE232005002285B24092
S113364022449244024941016FE01F95411106C68C
S113365022C42A8411E9377500001305854685655F
S11336609385D5C1EF206071376500201305451B94
S1133670A145104163068600FD152105FDF929A029
S1133680232E05FE23200500B240224441018280FE
S113369028418280485D8280411106C622C42A8462
S11336A011E937750000130585468565938525A5C1
S11336B0EF20A06C085C13351500B2402244410190
S11336C08280411106C622C42A8411E9377500009C
S11336D01305854685659385F5A7EF20006A085C88
S11336E04C5C2D8D13351500B2402244410182807B
S11336F0411106C622C426C2AE842A8411E9377554
S11337000000130585468565938595BCEF20E0662A
S113371001458DC4B76500209385051B214621A072
S11337207D16A10501CED4416389860075F98841CF
S11337303335A0007D156D8DE5B72E8519C104C103
S113374040C1B2402244924441018280411106C6E4
S113375022C42A8411E9377500001305854685655E
S11337609385B5BFEF206061376500201305451BC5
S1133770A145104163078600FD152105FDF90145AA
S113378019A00325C5FFB24022444101828079710A
S113379006D622D426D24AD04ECE52CC56CA5AC8C5
S11337A05EC662C466C23E89BA8AB689B28BAE84EA
S11337B02A8A131C26006285EFE0EFF415C52A84DB
S11337C013054005EFE02FF409CDAA8C130640053C
S11337D08145EFD00FF623A88C027D5B639A0C0021
S11337E029A42285EFE04FFB814C7D5B638F0C1E87
S11337F003A50C039305500A6286EFD08FF303A54B
S11338000C0333C5AB2071158DC493854C033D4621
S113381083C604002380D50083C6040093B6160033
S113382013371600D98E7D1685058504F5D2A3813C
S11338300C049D45937405FF63EABA0037750000D4
S11338401305254593056076EF202053194533D49D
S1133850AA0A23A68C0223A28C04938A4C005685C0
S1133860EFE03FD013858C01EFE0BFCF23A89C018C
S11338701345740023ACAC0023A29C032685D28597
S11338804E86EFD02FDD23A0AC0063040900232073
S11338909901638C0C147370043037450020832520
S11338A0450085052322B50037450020832545586A
S11338B085052322B558B745002003A6055715C230
S11338C0374500200325C55759E537450020832592
S11338D00557CC5503A6CC02636FB606232895572B
S11338E09DA823A895570325455885456315B50616
S11338F0376500201304051F9D442285EFE03FC572
S1133900FD145104FDF8376500201304852B22852E
S1133910EFE0FFC3376500209304C52C2685EFE054
S11339201FC33765002013050529EFE05FC2376523
S113393000201305C527EFE09FC13765002013055C
S1133940452AEFE0DFC03745002023288558374556
S11339500020232A9558374500208325855785055F
S1133960232CB55603A5CC02B745002003A6455722
S11339703316A62823AAC556B76500209385051FCC
S11339803345A5203345B520484123A4AC00104558
S113399023A6CC001045232256012324550103A558
S11339A0CC023345A5203345B52023AAAC000C41F5
S11339B0374600208326460085050CC1FD162322C8
S11339C0D60099E273600430374500200325C557BB
S11339D0054B01CD3745002003250557485583A5E0
S11339E0CC026374B500730000005A85B2502254AF
S11339F092540259F249624AD24A424BB24B224C87
S1133A00924C45618280411106C622C426C24AC036
S1133A1073700430B745002003A645002A840506C8
S1133A2023A2C50009E537450020032405571309DF
S1133A3044004A85EFE0BFB705E54854B765002068
S1133A409385051F3346A520B345B6208C4189E9EB
S1133A50B745002003A645573315A64823AAA55603
S1133A60085409C513058401EFE07FB437450020ED
S1133A70832585578505232CB55637450020032516
S1133A800557B745002083A5C557218D133515006B
S1133A90B334B000E98C85C0376500201305C52711
S1133AA0CA85EFE07FAC374500208325055885059E
S1133AB02320B55825A83745002083254558FD15F2
S1133AC02322B55837450020832505598C4191C9D7
S1133AD00325055948450841B745002023AEA5589C
S1133AE031A037450020FD55232EB5583745002019
S1133AF083254500FD152322B500A9C999E408587A
S1133B00EFE08FC92285EFE02FC937450020032558
S1133B10C5571DC537450020032505576312A40268
S1133B20374500200325855811C937750000130552
S1133B302545856593856591EF2020247300000059
S1133B40B2402244924402494101828073600430AD
S1133B50DDD465BF011106CE22CC26CA4AC84EC6A2
S1133B6052C456C22E892A8471C1630C090C37458C
S1133B7000208325855885052324B558B7450020A2
S1133B8083A4C558032585588545630BB50037754F
S1133B9000001305254585659385A593EF20E01D59
S1133BA00C403385250133B6A40063F6B400B33565
S1133BB0B500F18D21A0B335B500D18D93C91500A1
S1133BC008C06395090AB745002083AAC558B745BC
S1133BD0002003A90559B745002003AA45593744D5
S1133BE0002083250457A388050483250457B304C0
S1133BF0954013854500EFE09F9B01ED0325045795
S1133C004855B745002003A645573315A64823AAAF
S1133C10A55603250457D69444C18325045791051A
S1133C2063FB54035285EFE0BF9589A0377500000C
S1133C3013052545856593851593EF200014E31836
S1133C4009F237750000130525458565938525938D
S1133C50EF20A01229BF4A85EFE09F92374500204C
S1133C608325C55963F4B400232E95582D2219E1F8
S1133C707300000013C51900F2406244D244424963
S1133C80B249224A924A0561828037450020832541
S1133C90855885052324B5588280011106CE22CC8F
S1133CA026CA4AC84EC652C456C237460020032A02
S1133CB0C658374600200329065937460020832971
S1133CC04659B74A002003A60A57A308060403A6C8
S1133CD00A57AE842A8413054600EFE05F8D01ED98
S1133CE003A50A574855B745002003A64557331581
S1133CF0A64823AAA5561335F4FF93B514004D8D99
S1133D0029E1376500209305452AD041B7460020B4
S1133D1003A7065710C7184683A70657D8C703A793
S1133D2006571C461107D8C303A70657110718C620
S1133D3003A606574CCA8325452A85052322B52A9E
S1133D4091A037450020832505575294C0C183258F
S1133D5005579105637D44014E85F2406244D24487
S1133D604249B249224A924A05616FE07F814A85FD
S1133D70EFE01F81374500208325C5596374B400E3
S1133D80232E8558F2406244D2444249B249224A21
S1133D90924A05618280411106C622C426C24AC0E5
S1133DA073700430374500208325450085052322A0
S1133DB0B500374400200325845811E93775000005
S1133DC01305254585659385B5F9EF10107B03250B
S1133DD084587D152324A4580325845815C101450E
S1133DE0B745002003A645007D1623A2C50019E2AD
S1133DF073600430B24022449244024941018280FB
S1133E00374500200325455861DD376300208325AD
S1133E100329F9CD9305032937460020B76600200E
S1133E209386061FB742002037480020854821A00A
S1133E300325032949CDD84558470453404F085713
S1133E4004C4444F005344C044419307870163941E
S1133E50F4001C535CC1232407021C41FD171CC140
S1133E6048471C47444B88C708475C47C8C3C840F9
S1133E70930747006314F5004847C8C0232A070086
S1133E8088407D1588C0485783244657B394A42896
S1133E90232A96563345A5203345D520484108C7E3
S1133EA0044544C70445DCC01CC548573345A52018
S1133EB03345D52048CB1C4185071CC1485783A7EF
S1133EC00257DC57E3F6A7F6232C185995B70DC310
S1133ED037450020832505598C4191C50325055993
S1133EE04845084111A07D55B745002023AEA5588B
S1133EF0374500200324455A0DC037490020854426
S1133F0019A07D1419C4EF00100965DD232C9958FC
S1133F10CDBF374500202322055A3745002003250D
S1133F208559E30F05EA374500200325055773003B
S1133F300000054575B579C1011106CE22CC26CA0B
S1133F404AC84EC652C42A84374500208325855862
S1133F5085052324B558032585588545630BB5008D
S1133F603775000013052545856593850599EF1080
S1133F70D06037450020032AC5583745002003295F
S1133F8005593745002083294559B744002003A526
S1133F900457A308050403A504571105EFE02FE116
S1133FA001ED03A504574855B745002003A645571E
S1133FB03315A64823AAA55603A50457529440C115
S1133FC083A504579105637644014E85EFE04FDBEA
S1133FD021A84A85EFE0CFDA374500208325C5596B
S1133FE06374B400232E85587D33F2406244D24476
S1133FF04249B249224A056111C18280730000001E
S11340008280411106C622C42A8411E93775000052
S11340101305254585659385259CEF101056374576
S1134020002003250557630E850673700430374757
S1134030002083274700138517002322A7004C483C
S113404008543746002003260659B746002083A6A5
S113405046592322F70099E3736004303767002040
S113406013070729630DE5022D8E13351600AD8E57
S113407013B61600498E094515E637660020130667
S1134080462A6385C502376500201305C5272D8D93
S11340901335150093B51500C98D114581E5054506
S11340A011A00145B2402244410182800C54FDF923
S11340B0034504057D151335150013453500DDB79B
S11340C0737004303746002083254600938615001C
S11340D02322D60009E53745002003250557485516
S11340E02322B60091C1828073600430828019C19A
S11340F0485582803745002003250557485582805E
S113410073700430374600208325460093861500DB
S11341102322D60009E537450020032505576841C9
S11341202322B60091C1828073600430828019C159
S11341306841828037450020032505576841828005
S1134140011106CE22CC26CA4AC84EC61D46AE84EC
S11341502A8463EBC5003775000013052545856582
S11341609385C5ADEF10704173700430B7450020DE
S113417003A64500194533D5A40A050623A2C500A4
S113418009C46C40639AA500B5A8B745002003A4F0
S113419005576C406388A50637460020032606575A
S11341A063FEA5006300C4023746002003260657B9
S11341B050563336A6001349160031A0218E3339E8
S11341C0C00011A005494454A58D93B5150033B61C
S11341D0A400D18D91C148D40C4C68C063C50500BE
S11341E01345750008CC4848B76500209385051F22
S11341F033C69420B345B6206307B502631409009F
S1134200730000003745002083254500FD15232257
S1134210B50099E173600430F2406244D2444249EB
S1134220B24905618280930944004E85EFE02FB8BE
S113423009E93745002083254557B3959548232A36
S1134240B5564854B745002003A645573316A6284B
S113425023AAC556B76500209385051F3345A520BD
S11342603345B520484108C4104550C410452322A5
S113427036012324350148543345A5203345B52060
S113428048C80C4185050CC1E30C09F6A5BF4111D2
S113429006C622C426C273700430B745002003A6A4
S11342A045002A84050623A2C50009E537450020F8
S11342B003240557930444002685EFE04FAF05E53A
S11342C04854B76500209385051F3346A520B345A0
S11342D0B6208C4189E9B745002003A6455733151C
S11342E0A64823AAA556085409C513058401EFE07E
S11342F00FAC376500201305452AA685EFE0CFA64D
S11343000345040585456314B500230804043745B3
S1134310002083254500FD152322B50099E1736033
S11343200430374500200325C55721C1737004307C
S1134330B745002003A545001306150023A2C500B8
S11343403746002083260659944291C6032606590F
S11343505046104211A07D56B746002023AEC658E1
S113436023A2A50019E1736004303745002003251A
S113437005576316A404374500200325C55715C106
S1134380374500200325855811C9377500001305EA
S113439025458565938515CAEF10301E730000000E
S11343A039A8376500200325452AB745002083A591
S11343B04558631BB5003745002023280556B240F5
S11343C02244924441018280B240224492444101F9
S11343D009A0374500200325855819C53745002015
S11343E08545232CB5588280411106C622C426C2B5
S11343F037450020232C05583745002083250557D1
S11344008C59944137A6A5A51306565A639FC60036
S1134410D441639CC600944537A6A5A51306565AF5
S11344206395C600CC45638AC500832505570325DB
S1134430055793854503EF10701437450020032575
S11344404557131505601345F501B765002093859D
S1134450051F3344A520B344B420884011E93775BF
S1134460000013052545856593856540EF10F01020
S1134470C8404C411385440013868400CCC0639A21
S1134480C500B76500209385051FB345B420CC450E
S11344900CC108414845B745002023A8A55603A5EB
S11344A00557B2402244924441018280411106C61C
S11344B022C426C24AC02A8411E9377500001305B4
S11344C025458565938595D1EF10300B3745002040
S11344D003250557218D13351500933514004D8D93
S11344E055E173700430B744002003A5440005056A
S11344F023A2A4004848B76500209385452A631B7E
S1134500B506085425E90345040585456304B50645
S1134510130944004A85EFE08F894854B7450020C9
S113452003A645573316A62823AAC556B765002007
S11345309385051F3345A5203345B520484108C45C
S1134540104550C410452322260123242501485434
S11345503345A5203345B52048C80C4185050CC119
S1134560374500200325055748554C546374B5005E
S11345707300000003A544007D1523A2A40019E1E3
S113458073600430B2402244924402494101828063
S1134590411106C622C426C24AC02A8405E13775E1
S11345A00000930425450569930579D52685EF1008
S11345B0C07C930559CD2685EF10207C4848B7650B
S11345C000209385452A6316B50208541DE103456E
S11345D004058545630FB50037450020032585583C
S11345E00DC1930584013765002013050529EFD01B
S11345F0BFF781442685B2402244924402494101D6
S113460082804854B745002083A50557CC5563F8EC
S1134610A500374500208544232C955811A08144DA
S1134620130944004A85EFD09FF84854B745002049
S113463003A645573316A62823AAC556B7650020F6
S11346409385051F3345A5203345B520484108C44B
S1134650104550C410452322260123242501485423
S11346603345A5203345B52048C80C4185050CC108
S113467051B7011106CE2308010037454C451305F7
S113468095442AC637650000130585C7B745002041
S11346909387055A6C001306002081460147EFF00A
S11346A00F8FFD556307B5028545631DB502737011
S11346B00430374500207D56232EC5583745002049
S11346C0232EB5563745002023260558EFD0DF9614
S11346D011A837750000130525458565938545EABE
S11346E0EF10A069377500000325C54EF24005613F
S11346F08280011106CE22CC26CA4AC84EC652C4B4
S1134700374500200325055AEFF0EFAF3749002065
S11347100325095835C1B7440020B7690020374A3A
S1134720002011A80858EFD03F872285EFD0DF86FC
S11347300325095831C17370043003A5440083A5CF
S11347408928050523A2A400C04513054400EFD021
S11347501FE603254A587D152322AA580325095824
S11347607D152320A95803A544007D1523A2A40088
S113477055F9736004307DB77370043037450020F9
S1134780232E0556F2406244D2444249B249224A99
S113479005616FD05F8D374500200325855811C909
S11347A0B745002003A6455A0145050623A2C55A6C
S11347B08280411106C622C426C237450020032444
S11347C0C5580504232685582DE0B744002003A5C9
S11347D00459084111C9377500001305254585653D
S11347E09385B526EF10605903A50459B7450020F9
S11347F003A6455923A8C45823AAA5583745002021
S11348008325855A85052324B55A03A504590841EF
S113481001C937450020032505594845084111A021
S11348207D55B745002023AEA55837450020032504
S1134830C5596374A4000145E1A8B742002003A54B
S1134840025908417D5869C1014537430020B765C5
S113485000201387051FB748002029A083A502590B
S11348608C41DDC183A50259CC45CC45DC41636C48
S1134870F408DC459045C4491CC69045DC45D0C3CA
S1134880D040938745006314F600D045D0C023AAD6
S1134890050090407D1690C084559DC09051D44D24
S11348A090C6D04D9451D0C2D040938685016314F4
S11348B0D6009051D0C023A4050290407D1690C02C
S11348C0D05583264357B396C628232AD356334656
S11348D0C6203346E620504290C51446D4C514463B
S11348E0DCC21CC6D0553346C6203346E620D0C9A8
S11348F01442850614C2CC5503A608575056E37FCC
S1134900B6F40545A1BF3E88B745002023AE05593E
S1134910B745002083A50557CC55376600201306FC
S1134920061FB3C5B520B3C5C5208C410546B240AA
S11349302244924441016373B6000545B745002003
S113494083A58559E38605E6054582803745002021
S11349500325C5588280374500200325C558828029
S113496037450020032545588280411106C622C4DC
S11349702A8401C901CC13054403B24022444101F5
S11349808280374500200324055775F437750000ED
S113499013052545856593855506EF10003EE1BF57
S11349A0411106C622C426C24AC02A89EF100079E2
S11349B0C145636BB5003775000013052545856552
S11349C09385F50BEF10603B374500208325855810
S11349D085052324B5589D48376500201308051F15
S11349E001A8014413351400B33510016D8D25C1A0
S11349F0FD1833C51821B346052188427DD1D04620
S1134A00A106E300D6FE584681448147014429A803
S1134A102D8D13351500B335B00093B4F700850719
S1134A20E58D6D8DA28419CD3305F70083454503CB
S1134A3091E13A843305F90003450500E38AA5FCB6
S1134A402684F9B745F05042E31FD6FA59BF25E052
S1134A503745002083250559884129C9C84513884D
S1134A60850063050505504501478145014429A892
S1134A70BD8C93B614003337F00093B7F500850569
S1134A807D8FF98E228799CEB307B60083C747037B
S1134A9091E33284B306B90083C40600E38A97FC29
S1134AA03A84F9B709E44841E31F05FB014425E0D2
S1134AB03745002083254559884129C9C8451388AD
S1134AC0850063050505504501478145014429A832
S1134AD0BD8C93B614003337F00093B7F500850509
S1134AE07D8FF98E228799CEB307B60083C747031B
S1134AF091E33284B306B90083C40600E38A97FCC9
S1134B003A84F9B709E44841E31F05FB014435E45D
S1134B10376500208325452A1306452A484693B65F
S1134B201500130886003346050113361600558E0A
S1134B3021E6504501478145014429A8BD8C93B61F
S1134B4014003337F00093B7F50085057D8FF98E97
S1134B50228799CEB307B60083C7470391E3328413
S1134B60B306B90083C40600E38A97FC3A84F9B714
S1134B7009E44841E31F05FB014435E4376500209F
S1134B808325C5271306C527484693B61500130881
S1134B9086003346050113361600558E21E650452E
S1134BA001478145014429A8BD8C93B614003337CD
S1134BB0F00093B7F50085057D8FF98E228799CE95
S1134BC0B307B60083C7470391E33284B306B90041
S1134BD083C40600E38A97FC3A84F9B709E44841A0
S1134BE0E31F05FB0144EFF00F9B2285B2402244F2
S1134BF09244024941018280411106C622C426C260
S1134C00B744002083A584582A8491C937750000CD
S1134C101305254585659385A51DEF10001603A58D
S1134C208458050523A4A458737004303745002024
S1134C3003254500B745002003A6455A229623A222
S1134C40C55A19E173600430B240224492444101D0
S1134C506FF06F94411106C622C426C24AC02A844A
S1134C6009C9374500208325855885052324B5586F
S1134C703DA0377500009304254505699305791F08
S1134C802685EF10800F374500208325855885053C
S1134C902324B5589305299C2685EF10000E37452B
S1134CA000200325055763008510737004303747CF
S1134CB0002083274700138517002322A7004848B4
S1134CC00C543746002003260659B746002083A615
S1134CD046592322F70099E37360043037670020B4
S1134CE0130707296381E50C298E93351600A98ED5
S1134CF013B61600D18DD5C1130944004A85EFD0EF
S1134D001F8B73700430B744002003A544000505CD
S1134D1023A2A400085401C913058401EFD03F89DC
S1134D200545A308A40403A544007D1523A2A400FB
S1134D3019E1736004304854B745002003A6455771
S1134D403316A62823AAC556B76500209385051FE8
S1134D503345A5203345B520484108C4104550C407
S1134D601045232226012324250148543345A52038
S1134D703345B52048C80C4185050CC14854B74596
S1134D80002083A50557CC55054463FFA50037458E
S1134D9000200544232C855801A8B765002093857D
S1134DA0452A630CB5000144EFE0FFFE2285B240C2
S1134DB022449244024941018280085415FD03456E
S1134DC004058545E30AB5F2F9BF411106C622C4BC
S1134DD026C22E84AA8411E93775000013052545DF
S1134DE085659385C548EF005079374500208325B4
S1134DF00557E1052685EFD0AFF885452285B240F9
S1134E002244924441016FE05FE9411106C622C485
S1134E1026C24AC032892E84AA8411E9377500005B
S1134E201305254585659385A54AEF00107537451B
S1134E3000200325855811E9377500001305254521
S1134E4085659385E54AEF00507337450020832537
S1134E5005571316F42990CDCC40032605574CCEA4
S1134E6090458326055790D203260557944561063D
S1134E70D0C203260557610690C50325055704D5FE
S1134E8088400505854588C04A85B240224492443D
S1134E90024941016FE07FE0411106C622C4484542
S1134EA0404511E837750000130525458565938550
S1134EB01550EF00906C0850504C0C5408C6484CE8
S1134EC0105048C2D041130584016314A600105049
S1134ED0D0C12324040290417D1690C1B74500201F
S1134EE083A5855891CDB765002093850529D041C8
S1134EF050CC144614D01446C8C208C60CD495A08D
S1134F00484410444C4808C60844504448C2D04160
S1134F10130544006314A6005044D0C1232A04009E
S1134F2090417D1690C14C54374600208326465745
S1134F30B396B628232AD656376600201306061FD2
S1134F40B3C5B520B3C5C520CC410CC4944554C4E5
S1134F509445C8C288C548543345A520B345C520E7
S1134F604CC88841050588C14854B745002083A52D
S1134F700557CC5563F8A500B7450020054523AC7B
S1134F80A55811A00145B24022444101828041113B
S1134F9006C622C426C24AC03746002003268658C5
S1134FA02E892A8411EA3775000013052545856585
S1134FB09385F554EF00705C44441315F92908C037
S1134FC091E8377500001305254585659385A5553A
S1134FD0EF00B05A0C44504008480CC64C401044F2
S1134FE04CC24C41639485000C444CC123280400FA
S1134FF00C41FD150CC1C8449044CC4808C68844F3
S1135000D04448C2D041138544006314A600D04460
S1135010D0C123AA040090417D1690C1CC543746D8
S1135020002083264657B396B628232AD6563766D9
S113503000201306061FB3C5B520B3C5C520CC4157
S11350408CC49445D4C49445C8C288C5C854334557
S1135050A5203345C520C8C80C4185050CC1C854DA
S1135060B745002083A50557CC5563F7A500374500
S113507000208545232CB558B2402244924402496D
S113508041018280411106C622C42A8411E9377580
S1135090000013052545856593852559EF00F04DDE
S11350A0737004303745002083254500850523228D
S11350B0B500B745002083A5855A0CC0B74500202C
S11350C083A5C5584CC083254500FD152322B50092
S11350D099E173600430B240224441018280B745B3
S11350E0002083A5855A0CC1B745002083A5C55867
S11350F04CC18280411106C622C426C2AE842A84D1
S113510005CDA9C4737004303745002083254500BC
S113511085052322B500374500200325C5584C409A
S1135120374600208326065783C6160595CA0325ED
S11351300657A308050485A83775000013052545FF
S113514085659385155BEF005043CDFC37750000F2
S11351501305254585659385255BEF0010425DB7F2
S11351609040FD566301D606B746002083A6865AB2
S11351701840B98E93B616003337B500D98E95C250
S11351800D8D6370C502098E90C03745002003253C
S1135190855A08C0374500208325C55801454CC0B1
S11351A021A023A004000545B745002003A645001F
S11351B07D1623A2C50019E273600430B240224474
S11351C09244410182800145C5B737450020854599
S11351D0232CB5588280374500200325055782804B
S11351E019C1014582803745002003250557828077
S11351F061CD411106C622C426C22A844855B7454A
S1135200002003A605575056637FC5020C4C63CAA1
S11352100500B745002083A50557CC551D460D8EC6
S113522010CC4C48376600201306061F3345A520D2
S11352303345C5206380A502374500200325055763
S1135240485548D4ADA8684083A50557CC55333597
S1135250B500BDA0930444002685EFD04FB511E9F5
S11352604854B745002003A645573315A64823AA3A
S1135270A5563745002003250557485548D4B7455A
S1135280002003A645573316A62823AAC556B7659A
S113529000209385051F3345A5203345B52048419B
S11352A008C4104550C4104544C204C5485433458D
S11352B0A5203345B52048C80C4185050CC10545DA
S11352C0B240224492444101828079C5411106C60C
S11352D022C426C22A843745002003250557630BC0
S11352E0850037750000130525458965938545A319
S11352F0EF00B028284411E937750000130525454F
S11353008965938555A3EF00502728444C54704079
S11353107D15B18DB335B00013361500F18D28C459
S1135320BDC5930444002685EFD06FA811E9485405
S1135330B745002003A645573315A64823AAA5560A
S1135340684048D49D45898D0CCCB745002003A600
S113535045573316A62823AAC556B765002093855A
S1135360051F3345A5203345B520484108C41045E1
S113537050C4104544C204C548543345A5203345A0
S1135380B52048C80C4185050CC1054511A001454F
S1135390B240224492444101828075C1411106C643
S11353A022C426C2AE842A84284511E93775000038
S11353B0130525458965938525A9EF00101C6840D0
S11353C04C54B374950A6388950A2844854563143C
S11353D0B50A3745002003250557631B850037753B
S11353E000001305254589659385D5AAEF00F018BB
S11353F00C4C485444D463C505009D45858D0CCCA4
S11354004C48376600201306061F3345A520334554
S1135410C5206392A506930444002685EFD02F99F6
S113542011E94854B745002003A645573315A6484B
S113543023AAA5564854B745002003A6455733165A
S1135440A62823AAC556B76500209385051F3345B2
S1135450A5203345B520484108C4104550C4104523
S113546044C204C548543345A5203345B52048C833
S11354700C4185050CC1B240224492444101828012
S1135480B745002003A50557084D03A605575056F8
S113549083A505579D46918E94CD82803745002083
S11354A00325055701C52C4585052CC582800111AE
S11354B006CE22CC26CA4AC84EC6B2892E892A8470
S11354C011C937750000130525458965938535DDB8
S11354D0EF00B00A3745002083258558850523242D
S11354E0B558737004303745002083254500850581
S11354F02322B500B745002003A605573346C42030
S1135500704619C2814409A883A50557A29505468A
S11355102388C504B334300183254500FD152322B7
S1135520B500B5CD89C485454E85EFE00FF7EFE0B2
S11355309F8613351500658D19C1730000007370C3
S11355400430B745002003A54500050523A2A500A6
S113555037460020032506573345A420684501CD6E
S1135560B3362001032706579307F5FFFD16FD8E7A
S11355703347E42074C703260657229623080604FB
S113558003A645007D1623A2C50019E2736004300A
S1135590F2406244D2444249B24905618280736058
S11355A00430D1F069B7011106CE22CC26CA4AC80C
S11355B04EC652C4BA89368A3289AE842A8409C94D
S11355C0377500001305254589659385B5E375276F
S11355D0374500208325855885052324B5587370E5
S11355E00430374500208325450085052322B50076
S11355F0B745002003A605572296034606058946AB
S11356006314D60081440DA003A605573346C42075
S11356107446B3F6964074C683A50557A29505460D
S11356202388C504B334300183254500FD152322A6
S1135630B500D1CD89C485454E85EFE00FE6EFE096
S11356408FF513351500658D19C173000000737053
S11356500430374500208325450085052322B50005
S1135660630B0A0037450020032505573345A42062
S113567068452320AA00B745002003A505572295B5
S1135680034505050946631CC50003A505573345B5
S1135690A42070453376264170C5054511A0014507
S11356A083A50557A29523880504B745002003A6C2
S11356B045007D1623A2C50019E273600430F24050
S11356C06244D2444249B249224A056182807360ED
S11356D00430B5F0ADB7011106CE22CC26CA4AC8B3
S11356E04EC652C456C23A89368AB289AE842A84D6
S11356F089C937750000130525458965938505EB30
S1135700AD2D09E837750000130525458965938596
S113571015EBA5257370043037450020832545001B
S113572085052322B5006307090033C58420684535
S11357302320A90033059400834A050589452308DD
S1135740B50411450549636A45033775000013051F
S1135750454C3345AA200841028533C584206C4555
S1135760B3E535012DA809456394AA0001490DA8A4
S113577033C584202326350525A03745002003257D
S1135780C55819CD377500001305254589659385DE
S113579065EEE52331A033C584206C4585056CC5D1
S11357A00545639AAA08484410444C4808C608446E
S11357B0504448C2D041130544006314A600504429
S11357C0D0C1232A040090417D1690C14C54374621
S11357D0002083264657B396B628232AD656376622
S11357E000201306061FB3C5B520B3C5C520CC41A0
S11357F00CC4944554C49445C8C288C54854334520
S1135800A5203345C52048C80C4185050CC1085462
S113581009C937750000130525458965938555EF3A
S1135820A92B374500200325055748554C5463746C
S1135830B500730000003745002083254500FD15A1
S11358402322B50099E1736004304A85F240624432
S1135850D2444249B249224A924A056182800111E6
S113586006CE22CC26CA4AC84EC652C456C25AC014
S11358703E89BA84B68A328A2E842A8B09E937751E
S113588000001305254589659385A5F2FD2109C806
S1135890377500001305254589659385B5F2F1290F
S11358A089C433456421684588C033058B0083442B
S11358B0050589452308B5041145854963615503E8
S11358C0377500001305854D33C5AA2008410285AC
S11358D0334564216C45B3E545016CC535A83745AE
S11358E000200325C5580DC937750000130525454B
S11358F08965938555F7512105A0334564216C458D
S113590085056CC511A809456394A400814929A0A3
S1135910334564212326450505456396A40E0325D6
S11359208B0209C9377500001305254589659385E0
S113593005F8A12137450020032585581DC1376589
S11359400020130505294C41232EBB00904523203C
S1135950CB02904593068B0154C294C52324AB0219
S1135960ADA80325CB0003268B0083254B0108C675
S113597003258B000326CB0048C2D04113054B00FE
S11359806315A6000326CB00D0C1232A0B00904147
S11359907D1690C18325CB023746002083264657C7
S11359A0B396B628232AD656376600201306061F58
S11359B0B3C5B520B3C5C520CC412324BB00944551
S11359C02326DB009445C8C288C50325CB02334592
S11359D0A5203345C520232AAB000C4185050CC105
S11359E00325CB02B745002083A50557CC5563FC9E
S11359F0A5006305090005452320A90037450020BB
S1135A008545232CB5584E85F2406244D244424920
S1135A10B249224A924A024B05618280411106C66C
S1135A2022C426C24AC032892E84AA8409E9377561
S1135A3000001305254589659385C5FD3D2E09C8DC
S1135A40377500001305254589659385D5FD3526F1
S1135A50338584008345050509462308C504334579
S1135A60942070450506854670C56395D50C885409
S1135A7001C9377500001305254589659905F52C7D
S1135A80374500200325855805C1376500201305D7
S1135A9005294C41CCCC904590D090459386840107
S1135AA054C294C588D495A0C8449044CC4808C630
S1135AB08844D04448C2D041138544006314A600EE
S1135AC0D044D0C123AA040090417D1690C1CC5487
S1135AD03746002083264657B396B628232AD6563F
S1135AE0376600201306061FB3C5B520B3C5C5200D
S1135AF0CC418CC49445D4C49445C8C288C5C85408
S1135B003345A5203345C520C8C80C4185050CC1C3
S1135B10C854B745002083A50557CC5563FCA500A0
S1135B206305090005452320A90037450020854564
S1135B30232CB558B2402244924402494101828048
S1135B40411106C622C426C22E84AA8489C9377587
S1135B5000001305254589659385E505392C89E4FD
S1135B60374500208324055773700430B74500205F
S1135B7003A54500050523A2A500269403450405B5
S1135B8009466318C50013050405230005000545EF
S1135B9011A0014503A645007D1623A2C50019E204
S1135BA073600430B2402244924441018280411126
S1135BB006C622C426C24AC03289AE842A8489C950
S1135BC037750000130525458965938555087522A9
S1135BD009E4374500200324055773700430B745A2
S1135BE0002003A54500050523A2A50033C6842093
S1135BF068467446B3F6264174C603A645007D166E
S1135C0023A2C50019E273600430B24022449244D6
S1135C100249410182803745002023280556374533
S1135C2000202320055837450020232205583745F6
S1135C3000202326055837450020232A05563745DA
S1135C400020232E0556374500202322055A3745C8
S1135C500020232C0558374500202324055A3745B6
S1135C600020232C055637450020232E05583745A0
S1135C700020232405588280011106CE22CC26CA96
S1135C804AC84EC652C437490020B7440020B769F9
S1135C900020374A00200325095819E999A8085813
S1135CA0EFC08FAF2285EFC02FAF0325095831C154
S1135CB07370043003A5440083A58928050523A235
S1135CC0A400C04513054400EFC07F8E03254A5845
S1135CD07D152322AA58032509587D152320A95888
S1135CE003A544007D1523A2A40055F97360043074
S1135CF07DB741280325095845FDE5BF411106C676
S1135D0022C426C24AC0EFB0DF8037040440B7443F
S1135D1000203749002048500C507E053D81939562
S1135D2005494D8D1315056908D003A5C45A050509
S1135D3023A6A45A0325C900EFE0EF9FE9BF411150
S1135D4006C622C42D452AC21245334505082AC277
S1135D50376500001305C5CFB77500009385354836
S1135D60130600200547054481468147EFD03FA232
S1135D7063148500EFE0FF8F01A001A001A001A042
S1135D808280828082808280376500001305A5DAD4
S1135D90B7A5014023A0A5209302201C7390523084
S1135DA09302000C7390723082808280130141F858
S1135DB006C216C41AC61EC822CA26CC2ACE2ED0A3
S1135DC032D236D43AD63ED842DA46DC4ADECEC0A7
S1135DD0D2C2D6C4DAC6DEC8E2CAE6CCEACEEED077
S1135DE0F2D2F6D4FAD6FED897E2FF1F83A2C221DC
S1135DF096DAF322003096DC97E2FF1F83A28277C3
S1135E0023A02200732520341375F50FF3251034D5
S1135E1091052EC0171100000321416AAD4263179A
S1135E205506EFE00FDB17E3FF1F0323A3740321E1
S1135E300300824273901234E65273900230D652B9
S1135E4017E3FF1F0323831C232053009240A24225
S1135E503243C2435244E244724582551256A2561A
S1135E603257C2575258E25872598649164AA64ABE
S1135E70364BC64B564CE64C764D865D165EA65E9A
S1135E80365FC65F1301C10773002030EFB0AF88DF
S1135E9017E3FF1F0323036E032103008242739061
S1135EA01234E65273900230D65217E3FF1F0323D5
S1135EB0E315232053009240A2423243C24352448A
S1135EC0E244724582551256A2563257C25752586E
S1135ED0E25872598649164AA64A364BC64B564C66
S1135EE0E64C764D865D165EA65E365FC65F130190
S1135EF0C107730020300000000000000000000013
S1135F00130141F806C216C41AC61EC822CA26CCFA
S1135F102ACE2ED032D236D43AD63ED842DA46DC15
S1135F204ADECEC0D2C2D6C4DAC6DEC8E2CAE6CCE5
S1135F30EACEEED0F2D2F6D4FAD6FED897E2FF1F1C
S1135F4083A2820C96DAF322003096DC97E2FF1FDC
S1135F5083A2426223A0220073252034F325103447
S1135F60635805002EC0171100000321215501A814
S1135F7091052EC0171100000321415499A88542B0
S1135F80FE02138372006313650417E5FF1F0325E4
S1135F90E55D97E5FF1F83A5E5067D579041D44154
S1135FA018C154C110C19712000083A262513387F3
S1135FB0C2003333C700B383660098C123A27500BF
S1135FC0EFE06FFD15C1EFE0CFC039A8EFA09FF55A
S1135FD021A81375F50FAD4263155500EFE06FBFAF
S1135FE021A0EFA05FF309A017E3FF1F0323835849
S1135FF003210300824273901234E65273900230FC
S1136000D65217E3FF1F032363002320530092405B
S1136010A2423243C2435244E2447245825512566C
S1136020A2563257C2575258E25872598649164AF4
S1136030A64A364BC64B564CE64C764D865D165EEC
S1136040A65E365FC65F1301C1077300203041119D
S113605022C69376350013F73500358F3337E000C9
S1136060933746005D8F3308C50015EF9DEE2A86F1
S11360709376C8FFB382C6401307100263D7E204C5
S1136080AE873287637BD7008C43130647009107A2
S11360900CC33287E36AD6FE11A03A86636206090E
S11360A03244410182802A86ADA8930615002A87CE
S11360B083C705001306170085052300F70093F72F
S11360C0360085063287EDF765B7930800029841DC
S11360D003A3450083A3850003AEC50083AE050179
S11360E003AF450183AF8501C04D938745028C51B1
S11360F018C223226600232476002326C6012328FF
S1136100D601232AE601232CF60140CE13074602CA
S11361109382C2FD0CD23A86BE85E3CA58FA9DB773
S1136120BE85E37F06F7B306C84003C70500230016
S1136130E6000506FD168505EDFA9DB79375350055
S11361402A86A9E9B7857F7F9385F5F7B78680808E
S1136150938606081842B377B700AE975D8F758FA4
S11361601106E309D7FE8346C6FFB305A64091CACC
S11361700345D6FF11C90345E6FF11C9FD152E8558
S113618082801385C5FF82801385D5FF82801385A5
S1136190E5FF82808145930615002A8603470600A1
S11361A079DF05063387B6000D8B850565FB59BF7E
S11361B0411106C622C426C2377500001304054FD8
S11361C0377500001305054F018D098509C98545FB
S11361D0B374B50A08400295FD141104E5FC377543
S11361E000001304054F377500001305054F018D9A
S11361F0098509C98545B374B50A08400295FD149B
S11362001104E5FCB24022449244410182804111D0
S113621006C622C42A848145112837450020032557
S1136220455B11C102952285EFA09FBD797106D609
S113623022D426D24AD04ECE52CC56CA5AC85EC6B2
S1136240B749002003AB095B63090B08AE8A2A89AE
S1136250054A03244B0063528008334564219304A8
S11362604508A28B15A0029603254B0083A5095B64
S113627033C6AB00B3C56501D18DAA8BB9E913054B
S11362801400F114635BAA0422857D1463860A005A
S113629083A50408E39555FF03A604F86317750165
S11362A023228B00A28B09E6D9BF23A004F861DA6C
S11362B083258B1833158028E98DD5D58326CB18F3
S11362C08C40758D01C52E85029679BF4A8502964C
S11362D061BF03AB095BE31E0BF6B2502254925428
S11362E00259F249624AD24A424BB24B456182801A
S11362F0011106CE22CC26CA4AC84EC652C42A89E7
S11363006528374500209304C50105449149268A30
S1136310C840635DA00083248A00050583D5C400BA
S11363208DCD7D1593848406E34AA4FE83240A005C
S1136330F9FC9305C01A4A859D243DC5AA842320EF
S1136340050023223501310588C41306001A81454E
S1136350EFA03FBE23209A005DBF41750505C8C468
S113636023A2040623A0040023A4040023A20400FF
S113637023A8040023AA040023AC04001385C40545
S11363802146EFA01FBB23A8040223AA040223A2D0
S1136390040423A404042685F2406244D2444249FE
S11363A0B249224A05618280814423200A00314592
S11363B02320A900CDB78280374500208325455B83
S11363C091C18280011106CE22CC26CA4AC84EC68B
