S01C00004672656552544F535F706F72745F70726F64322E7372656300D4
S1130000971100009381018017710020130141FFB3
S11300100A84EF70B012EF10E06417450020130556
S1130020655317760020130666C5098E8145EF00D7
S11300305070174500201305E5FC970500009385D3
S1130040657D170600001306E650EF709030170523
S11300500020130525FB971500009385A5D01706EE
S11300600000130626FAEF70D02EEF10606117051A
S11300700000130525F911C517050000130585F8BF
S11300800120EF703043014581450146EF70500176
S10700906F70304811
S11300C0122200001222000012220000E622000088
S11300D0122200001222000012220000E622000078
S11300E0122200001222000012220000122200003C
S11300F0122200001222000012220000122200002C
S1130100122200001222000012220000122200001B
S1130110122200001222000012220000081D00001A
S113012012220000122200001222000012220000FB
S113013012220000122200001222000012220000EB
S113014012220000122200001222000012220000DB
S113015012220000122200001222000012220000CB
S113016012220000122200001222000012220000BB
S113017012220000122200001222000012220000AB
S10F0180122200001222000012220000D3
S10701C06F70100444
S1070400FFFFFFFFF8
S1070404FFCFFFFF24
S1130408FFFFFFFFFFFFFFFFFFFFFFFFFFFFFFFFF0
S1130418FCFF0F00FFFF0F00FFFFFFFFFFFFFFFFC1
S1130428FFFFFFFFFFFFFFFFFFFFFFFFFFFFFFFFD0
S1070438FFFFFFFFC0
S1130800FFFFFFFFFFFFFFFFFFFFFFFFFFFFFFFFF4
S113081060450020AAAAAAAA04400020E803000018
S113082000000200FFFFFFFF304400200000000032
S113083003000000186B002000000000000000000E
S11308402840002028400020304000203040002074
S11308503840002038400020404000204040002024
S113086048400020484000205040002050400020D4
S11308705840002058400020604000206040002084
S11308806840002068400020704000207040002034
S113089078400020784000208040002080400020E4
S11308A08840002088400020904000209040002094
S11308B09840002098400020A0400020A040002044
S11308C0A8400020A8400020B0400020B0400020F4
S11308D0B8400020B8400020C0400020C0400020A4
S11308E0C8400020C8400020D0400020D040002054
S11308F0D8400020D8400020E0400020E040002004
S1130900E8400020E8400020F0400020F0400020B3
S1130910F8400020F8400020004100200041002061
S1130920084100200841002010410020104100200F
S113093018410020184100202041002020410020BF
S1130940284100202841002030410020304100206F
S1130950384100203841002040410020404100201F
S113096048410020484100205041002050410020CF
S1130970584100205841002060410020604100207F
S1130980684100206841002070410020704100202F
S113099078410020784100208041002080410020DF
S11309A0884100208841002090410020904100208F
S11309B09841002098410020A0410020A04100203F
S11309C0A8410020A8410020B0410020B0410020EF
S11309D0B8410020B8410020C0410020C04100209F
S11309E0C8410020C8410020D0410020D04100204F
S11309F0D8410020D8410020E0410020E0410020FF
S1130A00E8410020E8410020F0410020F0410020AE
S1130A10F8410020F841002000420020004200205C
S1130A20084200200842002010420020104200200A
S1130A3018420020184200202042002020420020BA
S1130A40284200202842002030420020304200206A
S1130A50384200203842002040420020404200201A
S1130A6048420020484200205042002050420020CA
S1130A70584200205842002060420020604200207A
S1130A80684200206842002070420020704200202A
S1130A9078420020784200208042002080420020DA
S1130AA0884200208842002090420020904200208A
S1130AB09842002098420020A0420020A04200203A
S1130AC0A8420020A8420020B0420020B0420020EA
S1130AD0B8420020B8420020C0420020C04200209A
S1130AE0C8420020C8420020D0420020D04200204A
S1130AF0D8420020D8420020E0420020E0420020FA
S1130B00E8420020E8420020F0420020F0420020A9
S1130B10F8420020F8420020004300200043002057
S1130B200843002008430020104300201043002005
S1130B3018430020184300202043002020430020B5
S1130B402843002028430020304300203043002065
S1130B503843002038430020404300204043002015
S1130B6048430020484300205043002050430020C5
S1130B705843002058430020604300206043002075
S1130B806843002068430020704300207043002025
S1130B9078430020784300208043002080430020D5
S1130BA08843002088430020904300209043002085
S1130BB09843002098430020A0430020A043002035
S1130BC0A8430020A8430020B0430020B0430020E5
S1130BD0B8430020B8430020C0430020C043002095
S1130BE0C8430020C8430020D0430020D043002045
S1130BF0D8430020D8430020E0430020E0430020F5
S1130C00E8430020E8430020F0430020F0430020A4
S1130C10F8430020F8430020004400200044002052
S1130C200844002008440020104400201044002000
S1130C3018440020184400202044002020440020B0
S1130C4000000000186B0020806B0020E86B00207F
S1130C500000000000000000000000000000000090
S1130C600000000000000000000000000000000080
S1130C700000000000000000000000000000000070
S1130C800000000000000000000000000000000060
S1130C900000000000000000000000000000000050
S1130CA00000000000000000000000000000000040
S1130CB00000000000000000000000000000000030
S1130CC00000000000000000000000000000000020
S1130CD0000000000000000001000000000000000F
S1130CE00E33CDAB34126DE6ECDE05000B000000D4
S1130CF000000000000000000000000000000000F0
S1130D0000000000000000000000000000000000DF
S1130D1000000000000000000000000000000000CF
S1130D2000000000000000000000000000000000BF
S1130D3000000000000000000000000000000000AF
S1130D40000000000000000000000000000000009F
S1130D50000000000000000000000000000000008F
S1130E00B702100032051305353312050D0523A072
S1130E10A200FD52370300E6232653002322A30039
S1130E20232453002320A3008280FD52370300E6CD
S1130E302103232053002322B3002320A300828014
S1130E40370300E6832543000325030082807D15D4
S1130E507DFD8280F322003093F272FF1303801829
S1130E601203B3E26200711523205500711523208B
S1130E700500130585FA10C121159732002083A2BD
S1130E80226F2320550081426387020071152320BD
S1130E900500FD12D5BF71150CC1828017310020E9
S1130EA00321416D02418240C2435244E2447245EF
S1130EB082551256A2563257C2575258E2587259A6
S1130EC08649164AA64A364BC64B564CE64C764DD6
S1130ED0865D165EA65E365FC65FD6521733002067
S1130EE00323C31223205300E652A102739002305D
S1130EF0A24232431301C1078280F32220347323B8
S1130F001034F323003001A0F3222034732310346F
S1130F10F323003001A0F322203473231034F3238D
S1130F20003001A0F322203473231034F323003063
S1130F3001A03D432A876373C3029377F700BDEF93
S1130F40ADE5937606FF3D8ABA960CC34CC30CC735
S1130F504CC74107E36BD7FE11E28280B306C3405E
S1130F608A069702000096966780A6002307B700BA
S1130F70A306B7002306B700A305B7002305B700EF
S1130F80A304B7002304B700A303B7002303B700E7
S1130F90A302B7002302B700A301B7002301B700DF
S1130FA0A300B7002300B700828093F5F50F939652
S1130FB08500D58D93960501D58D61B7939627004D
S1130FC09702000096968682E78086FA9680C1177B
S1130FD01D8F3E96E374C3F8A5B7371504408325E7
S1130FE08580939505492324B58083258580BD9903
S1130FF02324B58083258580ED992324B58083251A
S113100085809395F5282324B580832505869395BB
S1131010E5282320B58683250586ED992320B5860A
S11310208280411106C622C426C24AC0296593059E
S1131030B55037E50140231FB53E8345A50A8345D6
S1131040050A85C98345650399E5B7E5014003C6EB
S1131050C503058A6DDEB7E5014003C6050A418A6A
S11310606DFEB7E501402380050A03C6050A418ADF
S11310706DFE2303050203456503058909C937E5A8
S1131080014093050002A30BB502230B050237E5CB
S113109001408345C5038589EDDD37E5014083457E
S11310A02503858981E585452309B502034505485E
S11310B005890DC537450F00930505241305B009AF
S11310C0412237E50140A3000548230105482300D8
S11310D005481305401F9305803E9D22B7E4014057
S11310E005492388244937450F00130405241305B3
S11310F0B009A285B122238C24030D45A28589223F
S1131100A388240337057F40230225FD03C5A40AD1
S113111003C5040A05C903C5640319E537E501409D
S11311208345C5038589EDDD37E501408345050A1F
S1131130C189EDFD37E501402300050A8345050A11
S1131140C189EDFD114588D0238A0404296513055E
S11311500550239FA43EB2402244924402494101D7
S1131160828037E50140830565021146636AB60053
S1131170379600001306C6F3B3C5C5208C4129A0D9
S1131180B7157A009385052008511605758133D566
S1131190A5008280B7E5014003C6050A6309A602DB
S11311A083C5650399E5B7E5014003C6C503058A10
S11311B06DDEB7E5014003C6050A418A6DFEB7E559
S11311C001402380A50A03C5050A41896DFD82807B
S11311D089456312B50237E501408345A50AC189F3
S11311E0EDFD37E5014085452305B50A8345A50A8C
S11311F0C189EDFD81A0B7E5014003C6A50A03C678
S1131200050A6309A60283C5650399E5B7E50140AC
S113121003C6C503058A6DDEB7E5014003C6050AAA
S1131220418A6DFEB7E501402380A50A03C5050A7E
S113123041896DFD82804165290582801DB701B910
S1131240797106D622D426D22E84AA84193FB745B2
S11312500F00938505242AD06316B4000255333554
S1131260950255C1825533859502B3B59502228600
S11312708146EF70903A2EC62AC43245A24593B5F2
S11312805551133515006D8D01ED3245A245138678
S1131290C5AEB335B6002E957D1532C42AC619A045
S11312A002C602C43245A2453386A500B336B60051
S11312B03696B7B6AAAA1387B6AAB337E60293D46A
S11312C01700F99BA6971D8EB387C5409386A6AADF
S11312D0B386D702B3B4E702A696B3B5C5000D8DA5
S11312E03305E5023695B385E7022EC82ACA42457E
S11312F0D2450945B9EDD2454246D18DB9C95245C9
S113130042452ACE91A0025533059502B7E51B4309
S1131310938535E83335B50249812AC8424593059A
S1131320B0056367B5004245130565FA2AC811A0E4
S113133002C84245B7B5AAAA9385B5AA3335B50202
S113134005812ACE724509C572451136014511A0A1
S11313500945B2502254925445618280B745002019
S11313609385055EB325B52003D6050011C6039603
S113137005007D162390C50083D5050091C18280A8
S1131380914563CFA5008D456301B5049145631C68
S1131390B504372500409305000F2302B50C828065
S11313A09545630BB5029945631FB5023715044093
S11313B0834535D093F5F50BA301B5D0834535D0DE
S11313C093E50508A301B5D0828037250040930535
S11313D0000F2302B5008280372500409305000FDB
S11313E02308B50C8280B7E501400396E53FB79624
S11313F00000938606F53325D52003150500A9665C
S113140093860650558E3375A640239FA53E828051
S1131410B74500209385055EB325B52003D60500A6
S113142019C60395050005052390A5008280114681
S1131430634FA6000D466301C5041146631CC50431
S1131440372500401306100F2302C50CD9BF1546DB
S1131450630BC5021946631FC502371504400346D2
S113146035D01376F607A301C5D0034635D01366ED
S11314700604A301C5D075B7372500401306100F25
S11314802302C50079BF372500401306100F230837
S1131490C50C41BF37E601408316E63F379700008D
S11314A0130707F53325E5200315050029671307FE
S11314B00750D98E558D231FA63EA5B7374500206A
S11314C01305055E9D4523100500FD150905E5FD81
S11314D0828037A501400C4193E525000CC13715E6
S11314E000E28345D50193F5E50FA30EB500BD4594
S11314F0A30FB5001306300C230FC5008346D50097
S113150093F6E60FA306D500A307B5002307C5008D
S11315108280411106C622C4153302C22AC0024584
S113152092451306800CB385C502B336C502B69541
S11315303306C5021305863E3336C500B29513063D
S1131540007D8146EF70700D37440020232AB45487
S11315502328A454F5300326045583264455B69510
S113156032953336C500B295C93037A501400C41D8
S113157093E515000CC1371500E28345D50193E5C9
S11315801500A30EB500B2402244410182804111EE
S113159006C66D3102C22AC0024592451306800C6C
S11315A0B385C502B336C502B6953306C502130525
S11315B0863E3336C500B2951306007D8146EF7032
S11315C0D005B24041018280411106C695383746A4
S11315D000208326065503264655B29536953336A4
S11315E0D500B295B240410189B0371500E2834578
S11315F0D50193F5E50FA30EB50037A501400C41C5
S1131600F9990CC139B0371500E68325C5FFF9995E
S1131610232EB5FEB71500E203C6D50013661600E7
S1131620A386C5008325C5FF93E51500232EB5FECB
S11316308280371500E28345D50093F5E50FA306B4
S1131640B500371500E68325C5FFF999232EB5FEAD
S11316508280411106C69D35010001009D3DB240C6
S1131660410181AA411106C66D3A37057F40834581
S113167085FC93E515002304B5FCB240410182804A
S1131680C9BF377504400C45939505490CC5828044
S1131690377504400C45939505290CC582806F006D
S11316A09044730020306F001044730020306F00AA
S11316B05036730020306F00D035730020306F0037
S11316C05035730020306F00D034730020306F0029
S11316D0503482806F00F033730020306F00703319
S11316E0730020306F00F032730020306F007032CE
S11316F0730020306F00F031730020306F007031C0
S1131700730020306F00F030730020306F007030B1
S1131710730020306F00F02F730020306F00702FA3
S1131720730020306F00F02E82806F00902E7300C3
S113173020306F00102E730020306F00902D730046
S113174020306F00102D730020306F00902C730038
S113175020306F00102C730020306F00902B73002A
S113176020306F00102B730020306F00902A73001C
S113177020306F00102A730020306F00902973000E
S113178020306F001029730020306F009028730000
S113179020306F001028730020306F0090277300F2
S11317A020306F001027730020306F0090267300E4
S11317B02030411106C6A14273900230194589397F
S11317C0012811287121592B1945B240410179B6DC
S11317D009A082808280371504408545A307B5D0CF
S11317E023260586232405862322058623200586B1
S11317F09145232EB584232C0584232A058423288C
S1131800B5842326058423240584232205842320E8
S1131810B584370604402317060223160602232E36
S1131820B588232C0588232A058823280588C146E2
S11318302326D58823240588232205882320058888
S11318402317060423160604232E058C232C058C4B
S1131850232AB58C2328B58C4166930606012326DA
S1131860D58C2324C58C2322D58C2320D58C2326E8
S113187005902324B5902322059023200590C1AE22
S11318802A868346050013051008A1CE8146130756
S113189016008347070085060507E5FFB3C606085B
S11318A011476390E604834616004167130707DF78
S11318B08347260003463600BA969386061EB3C7AE
S11318C0F72033A6C7203A9613B73500B3C60608E7
S11318D093B756007D8F33460608933706017D8FF4
S11318E011E3828005453316C028638BA5020945A0
S11318F0639DA50405456341D508FDCE0545639A5E
S1131900A616B7050440039585023375C540239494
S1131910A5028396A5020145558E2395C5028280B2
S11319206341D508EDCA05456393A618B70504407D
S11319300395A5023375C5402395A50283968502B8
S11319400145558E2394C502828005456340D50820
S1131950F5C20545639CA618B70504400395A50286
S11319603375C5402395A50283968502014533F658
S1131970C6402394C50282800945638DA60C0D459B
S11319806399A60EB7050440039585063375C540D3
S11319902394A5068396A5060145558E2395C50671
S11319A0828009456386A60E0D456392A610B7058D
S11319B004400395A5063375C5402395A506839673
S11319C085060145558E2394C50682800945638F9B
S11319D0A60E0D45639CA610B70504400395A50605
S11319E03375C5402395A50683968506014533F6D0
S11319F0C6402394C5068280B7050440039585003C
S1131A003375C5402394A5008396A5000145558EE2
S1131A102395C5008280B70504400395A50033755E
S1131A20C5402395A500839685000145558E2394D2
S1131A30C5008280B70504400395A5003375C540F1
S1131A402395A50083968500014533F6C64023946B
S1131A50C5008280B7050440039585043375C540ED
S1131A602394A5048396A5040145558E2395C504A6
S1131A708280B7050440039585083375C5402394D7
S1131A80A5088396A5080145558E2395C50882802F
S1131A90B70504400395A5043375C5402395A504F3
S1131AA0839685040145558E2394C5048280B70529
S1131AB004400395A5083375C5402395A50883966E
S1131AC085080145558E2394C5088280B7050440D6
S1131AD00395A5043375C5402395A5048396850411
S1131AE0014533F6C6402394C5048280B7050440FB
S1131AF00395A5083375C5402395A50883968508E5
S1131B00014533F6C6402394C50882802A8683465D
S1131B10050013051008ADC6814613071600834758
S1131B20070085060507E5FFB3C606081147639954
S1131B30E604834616004167130707DF8347260040
S1131B4003463600BA969386061EB3C7F72033A61B
S1131B50C7203A9613B7350013471700B3C60608D3
S1131B6093B716005D8F93B7360093C717005D8F48
S1131B70334606089337060193C717005D8F11C3D8
S1131B80828005473316C0286388E50209456397B8
S1131B90A50485451345F6FF6395B606B7050440CD
S1131BA08396C502758D2396A5028396E5020145A9
S1131BB0558E2397C50282801345F6FFB70504406E
S1131BC0639FE6048396E502758D2397A5028396A9
S1131BD0C5020145558E2396C5028280054593456D
S1131BE0F6FF370604406398A6040315E6026D8DDC
S1131BF02317A6028316C6020145F58D2316B602E5
S1131C008280B70504408396C504758D2396A50488
S1131C108396E5040145558E2397C50482808396F7
S1131C20E504758D2397A5048396C5040145558E57
S1131C302396C50482800315E6046D8D2317A6043C
S1131C408316C6040145F58D2316B604828082806E
S1131C50371500E28345D50593F5E50FA30EB504CA
S1131C60B765004003A605311316064923A8C530FD
S1131C7037160440832606869396E6282320D686C4
S1131C8083260686ED9A2320D68603C6450013765E
S1131C90F6072382C500238205001306F00FA30F65
S1131CA0C5041306300C230FC50403A5053101999F
S1131CB023A8A53003A505311365650123A8A53024
S1131CC099A037650040832505319395054923285C
S1131CD0B530371500E28345D50593E51500A30E0D
S1131CE0B5048280371500E28345D50593F5E50FE9
S1131CF0A30EB50437650040832505319395054946
S1131D002328B5308280828001112ACE2ECC32CA9B
S1131D1036C83AC6374500208325C5009306803E61
S1131D201307800C130640066384E5001306803E07
S1131D306394D5001306800C2326C5003765004044
S1131D4083250531939505492328B5307245E2452D
S1131D505246C2463247056173002030411106C61F
S1131D60377504400C45939505490CC5371500E2B9
S1131D708345950893F5E50FA304B508B7650040BE
S1131D8003A6C5331316064923AEC5323D46A30543
S1131D90C5081306300C2305C50803A5C5330199EE
S1131DA023AEA53203A5C5331365F50123AEA532D1
S1131DB03715044083258580939505492324B580F0
S1131DC083258580BD992324B58083258580ED995D
S1131DD02324B580832585809395F5282324B58015
S1131DE037C5094023000500230105002308050821
S1131DF09305F00FA308B50823090508A3000500FF
S1131E008345050993F5F5032308B50883450509BA
S1131E102308B5081305D004EFF06FC2B2404101A6
S1131E2015A2376500408325C53393950549232EB4
S1131E30B532371500E28345950893E51500A304F0
S1131E40B50837C509408345050093E50508230017
S1131E50B5008280411106C637C509408345050097
S1131E6093F5F5072300B5001145EFF04FBD371585
S1131E7000E28345950893F5E50FA304B50837659B
S1131E8000408325C53393950549232EB532B240CE
S1131E9041018280B7C5094003C5050013661500DA
S1131EA0130560022380C5006FF06FB937C5094080
S1131EB08345050093F5E50F2300B500828037C5FF
S1131EC009408345050993E545002308B508828048
S1131ED037C509408345050993F5B50F2308B508AF
S1131EE08280B7C5094083D5050A99812310B500BE
S1131EF082801306A5FFA946930510086361D602E4
S1131F001306C5FE1336C6069336250893C6160077
S1131F10558E11E6814537C60940A300A6002E85DB
S1131F2082809305F5FFB335B000133645006D8EFE
S1131F309305100811C6814537C60940A309A608B0
S1131F402E858280828041112AC62EC437650040C6
S1131F508325C53393950549232EB5323245A245D1
S1131F60410173002030411106C622C42A843D89F0
S1131F7001C93D1563748500014419A041984104C9
S1131F80EF209068374500208325855591C90DE0E1
S1131F90EF20507839CC2285B2402244410182801E
S1131FA0B74500209385D55FC199232CB5546DD0D6
S1131FB0374500200325C5559345F4FF63E7A50283
S1131FC0B305850013D645009306E01B63EFC600F6
S1131FD037460020032486552A9437450020232EB3
S1131FE0B554EF20307345F829A00144EF209072D6
S1131FF05DF0EF50301245B709C93795000013055D
S1132000B5FF930570096F50B010828037450020EA
S1132010232E05548280374500200325C555896544
S1132020938505BF3385A540828037450020232E44
S1132030055482804111732540F12AC63245B70503
S113204000E6138685003365C52037460020232427
S1132050A656D0419441D841E31DE6FEB16593856F
S113206005B83387B600B336D7003696B746002096
S113207023A2C65623A0E65650C118C103A506568E
S113208003A64656AA9533B5A500329523A0B656A5
S113209023A2A65641018280411106C6376500205D
S11320A01305051F9305E00E1306007DEFE07FE89E
S11320B0513745451E0573204530EFE03FDE0145AD
S11320C0B2404101828001A0130141F806C216C446
S11320D01AC61EC822CA26CC2ACE2ED032D236D454
S11320E03AD63ED842DA46DC4ADECEC0D2C2D6C4A4
S11320F0DAC6DEC8E2CAE6CCEACEEED0F2D2F6D434
S1132100FAD6FED89722002083A202F096DAF322B0
S1132110003096DC9722002083A2C24523A022002F
S1132120732520341375F50FF325103491052EC053
S113213017710000032101F1AD4263175506EF301A
S11321402041172300200323E3420321030082429A
S113215073901234E65273900230D6521723002043
S11321600323C3EA232053009240A2423243C243D2
S11321705244E244724582551256A2563257C2570F
S11321805258E25872598649164AA64A364BC64BEB
S1132190564CE64C764D865D165EA65E365FC65F8F
S11321A01301C10773002030EF504077172300203C
S11321B00323433C03210300824273901234E6520A
S11321C073900230D65217230020032323E42320E4
S11321D053009240A2423243C2435244E244724505
S11321E082551256A2563257C2575258E258725963
S11321F08649164AA64A364BC64B564CE64C764D93
S1132200865D165EA65E365FC65F1301C107730066
S11322102030130141F806C216C41AC61EC822CAC9
S113222026CC2ACE2ED032D236D43AD63ED842DA72
S113223046DC4ADECEC0D2C2D6C4DAC6DEC8E2CAA2
S1132240E6CCEACEEED0F2D2F6D4FAD6FED8972275
S1132250002083A262DB96DAF322003096DC972218
S1132260002083A2223123A0220073252034F325E9
S113227010342EC0177100000321C1DCEF50E06957
S1132280172300200323032F0321030082427390AA
S11322901234E65273900230D652172300200323DF
S11322A0E3D6232053009240A2423243C243524415
S11322B0E244724582551256A2563257C2575258BA
S11322C0E25872598649164AA64A364BC64B564CB2
S11322D0E64C764D865D165EA65E365FC65F1301DC
S11322E0C10773002030130141F806C216C41AC690
S11322F01EC822CA26CC2ACE2ED032D236D43AD602
S11323003ED842DA46DC4ADECEC0D2C2D6C4DAC6F1
S1132310DEC8E2CAE6CCEACEEED0F2D2F6D4FAD6E1
S1132320FED89722002083A222CE96DAF322003030
S113233096DC9722002083A2E22323A022007325A7
S11323402034F32510342EC017710000032181CFEF
S113235017250020032585219725002083A585CAFC
S11323607D579041D44118C154C110C197720000E7
S113237083A282CD3387C2003333C700B3836600A0
S113238098C123A27500EF30005A19C1EF30401CE8
S1132390172300200323031E0321030082427390AA
S11323A01234E65273900230D652172300200323CE
S11323B0E3C5232053009240A2423243C243524415
S11323C0E244724582551256A2563257C2575258A9
S11323D0E25872598649164AA64A364BC64B564CA1
S11323E0E64C764D865D165EA65E365FC65F1301CB
S11323F0C10773002030000000000000000000004E
S1132400130141F806C216C41AC61EC822CA26CC35
S11324102ACE2ED032D236D43AD63ED842DA46DC50
S11324204ADECEC0D2C2D6C4DAC6DEC8E2CAE6CC20
S1132430EACEEED0F2D2F6D4FAD6FED89722002015
S113244083A282BC96DAF322003096DC9722002025
S113245083A2421223A0220073252034F3251034D2
S1132460635805002EC0177100000321A1BD01A807
S113247091052EC0177100000321C1BC99A88542A3
S1132480FE021383720063136504172500200325DD
S1132490E50D9725002083A5E5B67D579041D441ED
S11324A018C154C110C19772000083A2E2B93387E6
S11324B0C2003333C700B383660098C123A27500FA
S11324C0EF30604615C1EF30A00839A8EF50E04462
S11324D021A81375F50FAD4263155500EF30400781
S11324E021A0EF50A04309A0172300200323830851
S11324F003210300824273901234E6527390023037
S1132500D65217230020032363B0232053009240A4
S1132510A2423243C2435244E244724582551256A7
S1132520A2563257C2575258E25872598649164A2F
S1132530A64A364BC64B564CE64C764D865D165E27
S1132540A65E365FC65F1301C107730020304111D8
S113255006C622C46145013C2A8411C52320040017
S11325601305440071212285B24022444101828036
S1132570011106CE22CC26CA4AC84EC652C4328A9B
S113258061823689AE84AA8909CA37950000130589
S1132590B5FB9305500CEF50A037631A0A0037952A
S11325A000001305B5FB9305600CEF506036EF3067
S11325B050643335A000933519004D8D09E93795E2
S11325C000001305B5FB9305900CEF506034EF2029
S11325D0B00303A409004E85A6855520C18C33752C
S11325E09A4001E903A509003375454123A0A900D8
S11325F025A0630109021385490093158A2993953F
S1132600A5294A86EF30701981440144EF209010C7
S113261001C8A9A883A409000544EF20B00F39E438
S113262019E173000000EF40A0079315650063CC27
S1132630050273700430B745002003A54500050565
S113264023A2A50003A509003376AA4009E6337640
S1132650454123A0C90003A645007D1623A2C50059
S113266019E2736004302205935485002685F240F4
S11326706244D2444249B249224A0561828001112E
S113268006CE22CC26CA4AC84EC62E892A8441C9FF
S11326901355890109C9379500001305B5FB930546
S11326A03023EF50E0269309C400EF20E0750C407E
S11326B00848B3E525010CC00149631335030840FC
S11326C03375254108C0EF20F0040840F24062440D
S11326D0D2444249B249056182802685E38134FFB0
S11326E01041144093158600A18113175600ED8EF6
S11326F063580700AD8EB336D0004441F9FE29A0DB
S113270093B616004441F1FA1E0614407D86F18DFD
S113271033E9250193959629EF3090277DBF3795AE
S113272000001305B5FB93052023EF50601E1355DD
S1132730890135F18DBF011106CE22CC26CA4AC8C3
S11327404EC652C456C25AC0BA8AB68932892E8B32
S11327502A8A79C113558B0179E963040B0EEF3092
S113276050493335A00093B51A004D8D09E93795CA
S113277000001305B5FB9305C014EF506019EF205A
S1132780A06803240A003375640163820902334597
S113279065013335A00019ED8544630F09023375D3
S11327A064412320AA00EF20E07695C8C5A0133524
S11327B015007DD163800A0A33353001B335200119
S11327C0E2056A05C98D13054A00B3E5650156861D
S11327D0EF30A07C01448144EF20C073C5E819E1C7
S11327E073000000EF30D06B9315650063CD0508CE
S11327F07370043037450020832545008505232266
S1132800B50003250A00B3756501638A0904B3C5DD
S1132810650193B51500B1A0379500001305B5FB0C
S113282093057014EF50C00E13558B011DD53795C9
S113283000001305B5FB93058014EF50600DE31001
S11328400BF2379500001305B5FB93059014EF5078
S1132850200C31B78544EF20E06BD1D005A8B33507
S1132860B00033362001F18D89C5B375654123204D
S1132870BA00B745002003A645007D1623A2C50073
S113288019E2736004302205135485002285F24056
S11328906244D2444249B249224A924A024B0561F7
S11328A08280411106C622C426C2AE842A8431C560
S11328B013D5840109C9379500001305B5FB9305A9
S11328C0301EEF50E00473700430B745002003A5B8
S11328D04500050523A2A50008403376954010C0A5
S11328E003A645007D1623A2C50019E273600430D7
S11328F0B24022449244410182803795000013057E
S1132900B5FB9305201EEF50A00013D5840145F5B7
S11329105DBF08418280411106C622C426C24AC056
S11329202A8409E9379500001305B5FB9305E028CF
S1132930EF40107EEF20404D484005C99304C40089
S1132940379500001309B5FB01A80848B705000234
S1132950EF301004484011C90848E31895FE930568
S1132960A0294A85EF40D07ACDB7EF20A05A22851E
S1132970B24022449244024941016FF0EFE701B3AF
S1132980411106C622C426C2AE842A8431C513D599
S1132990840109C9379500001305B5FB9305301E62
S11329A0EF401077737004303745002083254500CD
S11329B085052322B5000C40B3F595400CC0832552
S11329C04500FD152322B50099E173600430B2403F
S11329D02244924441018280379500001305B5FBDF
S11329E09305201EEF40D07213D5840145F55DBFD9
S11329F0930585004CC17D5610C54CC50CC92320D8
S1132A00050082802328050082805041D0C11446ED
S1132A1094C51446CCC20CC688C90C4185050CC1AA
S1132A20828094417D56638AC600130785003A86E6
S1132A3058431C43E3FDF6FE11A010495442D4C18F
S1132A408CC690C54CC288C90C4185050CC18280D6
S1132A50104554410C4990C650411445D0C2D04150
S1132A606314A6001045D0C12328050088417D15B4
S1132A7088C18280411106C622C419C92A84505DC6
S1132A80054509C634403336D60211CE014469A047
S1132A9037950000130595F893057013EF405067C0
S1132AA00144054595A8737004303745002003267A
S1132AB0450005062322C500485C30401440330716
S1132AC0A602369718C4232C040254C07D1533057E
S1132AD0C502369548C41305F00F2302A404A302CB
S1132AE0A4041305040191C52137130544020937D1
S1132AF001A80C4191C5EF30405A19C17300000080
S1132B003745002083254500FD152322B5000544E3
S1132B10014599E17360043009C937950000130534
S1132B2095F89305C016EF40B05E2285B24022446A
S1132B3041018280411106C622C426C24AC021C175
S1132B402E89AA843335B5021DE93305990293050C
S1132B5070FB63E6A50213058504EFF0CFC005C939
S1132B602A84133519007D1513758504229508C030
S1132B7044DC2320240585452285ED3D11A83795A5
S1132B800000130595F89305A022EF407058014406
S1132B902285B2402244924402494101828041117B
S1132BA006C622C413058004EFF0EFBB1DC92A84B6
S1132BB008C1054548DC23200404854522855D3D84
S1132BC001CC2324040023200400232604002285AE
S1132BD0814501468146F1282285B24022444101C3
S1132BE08280014479FCCDBF411106C622C42A84E7
S1132BF009E937950000130595F89305802BEF40FC
S1132C003051737004303746002083254600138505
S1132C1015002322A600084019C901452322B60045
S1132C2099E173600430B240224441018280084437
S1132C302322B600EDF9F5B7411106C622C42A8451
S1132C4009C5084009CD014521A8379500001305A1
S1132C5095F89305C02DEF40B04B08406DF508443E
S1132C60B240224441018280411106C622C426C2D8
S1132C702A8409E937950000130595F89305B02FC8
S1132C80EF4010490444EF3020756384A40081446C
S1132C9019A848447D1548C4854411E52285814519
S1132CA00146814639202685B2402244924441019E
S1132CB08280797106D622D426D24AD04ECE52CC06
S1132CC056CA5AC8B6892E892A8432C601C56317E2
S1132CD0090219A837950000130595F89305603B80
S1132CE0EF401043631C0900284009C937950000D0
S1132CF0130595F89305703BEF4090410945639E99
S1132D00A900485C8545630AB500379500001305A2
S1132D1095F89305803BEF40B03FEF30806DB245AE
S1132D2013351500B335B0006D8D09C93795000012
S1132D30130595F89305B03BEF40903D7370043054
S1132D40B745002003A545001306150023A2C500BE
S1132D500C5C505C9386E9FF93BA1600B3B5C500CA
S1132D60B3E5BA0095CD045C304063030612638971
S1132D7009124844CA85EF40D05D28404C441040B5
S1132D80898D4CC463F7C5000C443305A0402E95CF
S1132D9048C40145B3359000B3F5BA008D8C15AA2B
S1132DA0B2456380050E130A04014800EF30405316
S1132DB0B7440020130BF00F03A544007D1523A294
S1132DC0A40019E173600430EF2000047370043030
S1132DD003A544009305150023A2B40083454404CD
S1132DE06389650583455404638B650523A2A400A8
S1132DF021CD48006C00EF30005061E17370043065
S1132E0003A644001305160023A2A400085C4C5C2E
S1132E1023A2C4000DCE6310B504B2455285EF3031
S1132E20C0132285D52EEF20E00E15E973000000B3
S1132E303DA02302040483455404E39965FBA302E3
S1132E40040423A2A40055F5736004305DB77360D5
S1132E500430E304B5FC2285C126EF20A00B737077
S1132E60043003A544009305150023A2B4000C5CB0
S1132E70505CB3B5C500B3E5BA00E39605EEB245C0
S1132E8085FDB745002023A2A50015CD0145A5A8C1
S1132E90084015E10844EF3040652324040015A8D8
S1132EA04840CA85EF40F04A28404C4010442E95D3
S1132EB048C0637DC500014529A82285B12EEF20B5
S1132EC06005014589A07360043035A80C400145B4
S1132ED04CC0850404DC4C5089C913054402EF300E
S1132EE0C01B19C57300000021A019C173000000A4
S1132EF03745002083254500FD152322B5000545EF
S1132F0099E173600430B250225492540259F24948
S1132F10624AD24A424B45618280411106C622C4AC
S1132F2026C24AC02E892A8409E937950000130570
S1132F3095F893057033EF40B01D0444EF30C04959
S1132F406387A4002285CA85292819E129A005459B
S1132F504C4485054CC4B240224492440249410188
S1132F608280797106D622D426D24AD04ECE52CC53
S1132F7056CA5AC85EC62A842EC409E93795000089
S1132F80130595F893052068EF409018284009C967
S1132F9037950000130595F893056068EF405017C6
S1132FA0EF302045A24513351500B335B0006D8DC3
S1132FB009C937950000130595F89305B068EF40EB
S1132FC030158149814B930A040113094402B74423
S1132FD00020130BF00F19A063030518737004305D
S1132FE003A544009305150023A2B4000C5C89C911
S1132FF0FD150CDC084009CD03A50A0005E12DA050
S1133000A245A9C1054563860B04854B39ED49AA40
S1133010EF30C06A08C403A50A0019C55685EF300D
S1133020C00719C17300000003A544007D1523A245
S1133030A400054A01C501450DE99DA27360043051
S11330400DE5B9AA23A2A40001CD0145014A11ED61
S113305081AA0A85EF30C028854B054519E589A268
S1133060014A73600430630D051203A544007D1505
S113307023A2A40019E173600430EF10F0587370B8
S1133080043003A544009305150023A2B40083452E
S1133090440463826505834554046384650523A25F
S11330A0A40029C50A852C00EF30E02439C122850B
S11330B0A522EF1030667370043083A54400138595
S11330C0150023A2A400085C23A2B400E39605F033
S11330D07360043011B72302040483455404E3905D
S11330E065FDA302040423A2A4004DFD7360043013
S11330F055BF7370043083A544001385150023A2C3
S1133100A400085C23A2B40099E17360043011C5E3
S113311022851922EF101060D1B5084005E57370BF
S1133120043003A54400050523A2A4000844EF309D
S1133130202E83A54400AA89FD1523A2B40099E199
S113314073600430A2454A85EF2030612285E9206E
S1133150EF10505CE31405E87300000041B563828E
S1133160090273700430B744002003A54400050528
S113317023A2A400485001C9085808419D45898DDF
S113318021A0014A31A881450844EF30004303A53A
S113319044007D1523A2A400014A19E173600430A0
S11331A05285B250225492540259F249624AD24A88
S11331B0424BB24B45618280411106C622C426C2ED
S11331C04AC02E892A8413351500B335B4004D8DB9
S11331D019C937950000130595F89305F039EF40A8
S11331E02073814405A013058004EFE0DFD715C1E7
S11331F0AA8408C140DD232005048545A53899C06B
S113320023AC24032685B24022449244024941015E
S113321082808144F5F4FDB7011106CE22CC26CA82
S11332204AC84EC652C473700430374900208325FF
S11332304900AA8985052322B9000304550463546F
S1133240800293844902054A31A0131544607D1419
S1133250635BAA00884001C92685EF20106475D5F8
S1133260EF30C016DDB71305F00FA382A9040325C0
S113327049007D152322A90019E17360043073709D
S11332800430374900200325490005052322A900FD
S1133290038449046354800293840901054A31A0DC
S11332A0131544607D14635BAA00884001C9268518
S11332B0EF20B05E75D5EF306011DDB71305F00F68
S11332C02382A904032549007D152322A90019E1BD
S11332D073600430F2406244D2444249B249224A03
S11332E005618280797106D622D426D24AD04ECE88
S11332F052CC56CA5AC85EC6B6843289AE892A846C
S113330001C56397090219A837950000130595F8BC
S113331093050049EF40C05F639C0900284009C938
S113332037950000130595F893051049EF40405E6A
S11333300945639EA400485C8545630AB50037953A
S11333400000130595F893052049EF40605C085C84
S11333504C5C1386E4FF933B16003335B50033E52C
S1133360AB0031C1830A5404085C032B840330404E
S113337013FAFA0F1DCAB1C04844CE85EF40607DF0
S113338028404C441040898D4CC463F7C5000C445C
S11333903305A0402E9548C43335600133F5AB00A6
S11333A0330BAB4005A8814451A0084005E508440F
S11333B0EF30A0132324040031A84840CE85EF4009
S11333C0407928404C4010442E9548C06364C500A1
S11333D0084048C0050B1305F00F232C6403630752
S11333E0AA02EF20E070854463F2AA041305F007F3
S11333F0631AAA0037950000130595F89305E05168
S1133400EF400051050AA30244050DA0485085442D
S113341011CD13054402EF205048133515009335A0
S113342019004D8D01E58544232099002685B2506D
S1133430225492540259F249624AD24A424BB24B44
S113344045618280011106CE22CC26CA4AC84EC6E6
S113345052C42E892A8441C5284009C937950000E1
S1133460130595F893054054EF40804A084019E944
S1133470084409C937950000130595F8930590543D
S1133480EF400049085C4C5C6371B5048304540448
S113349093F9F40F05059305F00F08DC638CB90468
S11334A0EF200065054A63F3A4021305F007639A4D
S11334B0A90037950000130595F89305B05CEF401B
S11334C020458509A302340511A0014A5285F24022
S11334D06244D2444249B249224A05618280379506
S11334E00000130595F893050054EF40604228400E
S11334F035F5ADBF4850054A71D913054402EF2094
S1133500D03913351500933519004D8D61F1054AF5
S11335102320490165BF397106DE22DC26DA4AD848
S11335204ED652D456D25AD05ECE62CC2E89AA84BC
S113353032CA01C56317090219A83795000013059B
S113354095F89305905EEF40A03C631C0900A840E9
S113355009C937950000130595F89305D05EEF402F
S1133560203BEF201069D24513351500B335B00068
S11335706D8D09C937950000130595F89305205FF3
S1133580EF400039814B138A040193894402374C7C
S11335900020130BF00F19A0630E05147370043090
S11335A003254C00930515002322BC00805C39C020
S11335B0B04009CEC8448C443295C8C46364B50095
S11335C08840C8C4CC444A85EF40A0587D1480DCB0
S11335D0884819C55285EF20502C19C1730000008A
S11335E003254C007D152322AC00854A01CD0145FD
S11335F005ED11A2D24599C9054563810B02854B9E
S113360005E5D5A87360043005E1F5A02322AC00DC
S1133610814A71FD7360043001E9F1A86800EF206C
S1133620304C854B054561C903254C007D1523228B
S1133630AC0019E173600430EF10007D7370043046
S113364003254C00930515002322BC0083C54404C4
S11336506382650583C55404638465052322AC0035
S113366029C568004C08EF20104939C126856D36FC
S1133670EF10500A7370043083254C001385150035
S11336802322AC00885C2322BC00E39705F073601E
S1133690043019B72382040483C55404E39065FD00
S11336A0A38204042322AC004DFD7360043055BF93
S11336B07370043083254C00138515002322AC005D
S11336C0885C2322BC0099C509C92685B136EF1050
S11336D07004E9B5736004306DF9D2454E85EF206E
S11336E0D0072685153EEF10F002E31905EA7300B2
S11336F000006DB5814A5685F2506254D254425945
S1133700B259225A925A025BF24B624C2161828076
S1133710797106D622D426D24AD04ECE52CC56CA7D
S11337205AC85EC62E89AA8432C401C56317090229
S113373019A837950000130595F893051076EF4006
S1133740201D631C0900A84009C937950000130512
S113375095F893055076EF40A01BEF209049A245C1
S113376013351500B335B0006D8D09C937950000C8
S1133770130595F89305A076EF408019014B9389C2
S11337804402B74B0020930AF00F19A0630E0514EE
S11337907370043003A54B009305150023A2BB00EE
S11337A08C5CB9C1B040C04409CE8844B305C400A0
S11337B0CCC463E4A5008840C8C4CC444A85EF4027
S11337C04039C850C0C419C54E85EF20100D19C129
S11337D07300000003A54B007D1523A2AB00054A2E
S11337E001CD014505ED11A2A24599C90545630125
S11337F00B02054B05E5D5A87360043005E1F5A07F
S113380023A2AB00014A71FD7360043001E9F1A801
S11338100A85EF20F02C054B054561C903A54B0033
S11338207D1523A2AB0019E173600430EF10C05D75
S11338307370043003A54B009305150023A2BB004D
S113384083C544046382550583C5540463845505C4
S113385023A2AB0029C50A852C00EF20D02939C149
S113386026855D3AEF10006B7370043083A54B001E
S11338701385150023A2AB00885C23A2BB00E39749
S113388005F07360043019B72382040483C554041B
S1133890E39055FDA382040423A2AB004DFD7360A5
S11338A0043055BF7370043083A54B001385150095
S11338B023A2AB00885C23A2BB0099C509C9268555
S11338C0A13AEF102065E9B5736004306DF9A245A3
S11338D04E85EF20806826858132EF10A063E319BE
S11338E005EA730000006DB5014A5285B2502254B6
S11338F092540259F249624AD24A424BB24B456150
S11339008280011106CE22CC26CA4AC84EC652C4B1
S113391056C23289AE8A2A8401C563970A0219A85D
S113392037950000130595F89305D07FEF30507E4E
S1133930639C0A00284009C937950000130595F8CF
S11339409305E07FEF30D07C045CBDCC030A4404D3
S113395030409379FA0F09CE48440C44329548C458
S11339606364B500084048C44C445685EF40601E6B
S1133970FD141305F00F04DC6388A902EF2040173F
S113398085446373AA041305F007639BA900379564
S11339900000130595F8856593854584EF305077CD
S11339A08509230234050DA00848854411CD13056B
S11339B00401EF20806E13351500933519004D8DE9
S11339C001E58544232099002685F2406244D244CF
S11339D04249B249224A924A05618280411106C68F
S11339E022C426C24AC02E892A8401C56319090249
S11339F021A837950000130595F8856593851586EC
S1133A00EF301071631D0900284011C9379500007B
S1133A10130595F8856593852586EF30706F2840EA
S1133A2001C5085C09ED2DA837950000130595F82C
S1133A30856593853586EF30B06D085C15C13040DF
S1133A40444409CE0844B385C4004CC463E4A500CF
S1133A50084048C44C444A85EF40A00F44C405457F
S1133A60B24022449244024941018280411106C677
S1133A7022C42A8411E937950000130595F8856559
S1133A809385B589EF30D06873700430B745002052
S1133A9003A645001305160023A2A500085C23A273
S1133AA0C50019E273600430B240224441018280AF
S1133AB0411106C622C42A8411E937950000130572
S1133AC095F885659385058BEF30906473700430A9
S1133AD03746002083264600138516002322A600BD
S1133AE0485C0C5C2322D60099E2736004300D8D8F
S1133AF0B240224441018280411106C622C42A8474
S1133B0011E937950000130595F885659385558C63
S1133B10EF301060085CB2402244410182804111C0
S1133B2006C622C426C24AC02A8405E1379500008D
S1133B30930495F805699305498D2685EF30505D0A
S1133B409305D9C12685EF30B05C37750020130585
S1133B50459CA145104163068600FD152105FDF92C
S1133B6029A0232E05FE232005002285B2402244ED
S1133B709244024941016FE02FC8411106C622C494
S1133B802A8411E937950000130595F88565938516
S1133B90D5C1EF30F057377500201305459CA1457A
S1133BA0104163068600FD152105FDF929A0232E89
S1133BB005FE23200500B2402244410182802841B1
S1133BC08280485D8280411106C622C42A8411E99C
S1133BD037950000130595F88565938525A5EF3085
S1133BE03053085C13351500B240224441018280F1
S1133BF0411106C622C42A8411E937950000130531
S1133C0095F885659385F5A7EF309050085C4C5C7A
S1133C102D8D13351500B24022444101828041119B
S1133C2006C622C426C2AE842A8411E93795000050
S1133C30130595F88565938595BCEF30704D014566
S1133C408DC4B77500209385059C214621A07D165F
S1133C50A10501CED4416389860075F988413335C5
S1133C60A0007D156D8DE5B72E8519C104C140C135
S1133C70B2402244924441018280411106C622C4CA
S1133C802A8411E937950000130595F88565938515
S1133C90B5BFEF30F047377500201305459CA145AB
S1133CA0104163078600FD152105FDF9014519A0A2
S1133CB00325C5FFB240224441018280411106C65A
S1133CC022C47370043037470020832647002A84B7
S1133CD0138516002322A700034744041305F00F9D
S1133CE06303A702034754046305A7023745002072
S1133CF02322D50095C2085C05C52285B240224422
S1133D0041016FF06FD12302040403475404E31FFD
S1133D10A7FCA3020404D9BF73600430085C71FDDE
S1133D2013054402EF204030C9BF011106CE22CC56
S1133D3026CA4AC84EC652C489462E892A84630BB1
S1133D40D6008549631D360115459305E015636C5E
S1133D50A40005A0914911EC9305401629A08149BE
S1133D6009E89305A016379500001305D5FDEF303B
S1133D70303A637A2401379500001305D5FD930585
S1133D80D016EF30F0381305A0FD636A85001305E3
S1133D9054020504EFE02F9DAA8481E42DA88144F8
S1133DA09DC80545337AA90A138944029305500531
S1133DB04A852286EFD0EF97130640022685814577
S1133DC0EFD02F9723AC240180C423A64401238E73
S1133DD0340123A004022685F2406244D2444249BD
S1133DE0B249224A05618280411106C622C42A844E
S1133DF009E9379500001305D5FD93053023EF300D
S1133E0030310345C401098919E52285B2402244B1
S1133E1041016FE06F9E1306400222858145B24046
S1133E20224441016FD0EF90011106CE22CC26CA64
S1133E304AC84EC652C456C22A8409E937950000BE
S1133E401305D5FD9305E025EF30902C73700430F5
S1133E50B744002003A54400050523A2A400084894
S1133E6019E148481DC1014583A54400FD1523A25D
S1133E70B40099E173600430F2406244D244424990
S1133E80B249224A924A0561828083298401032926
S1133E908400032AC400834AC401930550054E8557
S1133EA04A86EFD00F891306400222858145EFD060
S1133EB04F88232C34012324240123264401230E78
S1133EC0540123200402054545B7011106CE22CC36
S1133ED026CA4AC84EC652C42A8401C5084811EDF0
S1133EE019A8379500001305D5FD9305C029EF30B7
S1133EF03022084819E1484811C90145F24062449A
S1133F00D2444249B249224A05618280044C0329C1
S1133F1084008329C400034AC401930550052685FF
S1133F204A86EFD00F811306400222858145EFD0E7
S1133F304F8004CC2324240123263401230E44017E
S1133F402320040205455DBF411106C622C426C2D2
S1133F50AE842A8409E9379500001305D5FD93053D
S1133F60802DEF30F01A10440545B3F5A40A63F42C
S1133F70C5004CC411A00145B24022449244410101
S1133F808280411106C622C42A8409E937950000BB
S1133F901305D5FD9305A02FEF3090170844144066
S1133FA00C4050401840E39CE6FEAA951346F6FFE9
S1133FB0B29533B6A5007D16718D3385A540B24008
S1133FC0224441018280411106C622C42A8409E99F
S1133FD0379500001305D5FD9305E031EF305013FC
S1133FE008444C401040AA95918D33B6A5007D1627
S1133FF0718D3385A540B24022444101828079719C
S113400006D622D426D24AD04ECE52CC56CA5AC84C
S1134010B2892E892A8436C6F1CD09E83795000085
S11340201305D5FD93056033EF30900E0345C401AD
S113403004440589FD1411E533DA340B324501EDEE
S1134040EDA87155138A490063FBA90C63E3440F7F
S113405032456304050E4800EF20E022374B002070
S113406037950000930AD5FD39A808503247814599
S113407001468146EF202075232A040048006C0085
S1134080EF20602745ED7370043003254B000505D0
S11340902322AB0011E49305A02F5685EF3050077F
S11340A0084414400C4050401840E39CE6FEAA9596
S11340B01346F6FFB29533B6A5007D16718DB38411
S11340C0A54063F344050C500145EF20F04A4848ED
S11340D011C5930550375685EF309003EF20C02F5C
S11340E048C803254B007D152322AB003DFD7360BA
S11340F00430A5BF379500001305D5FD9305503353
S1134100EF30100105F419BF374500208325450021
S1134110FD152322B5009DE17360043005A0379599
S113412000001305D5FD93055034EF30607EE3F1B4
S113413044F302C63245E31005F281449DE809E8E0
S1134140379500001305D5FD9305A02FEF30407C73
S1134150084414400C4050401840E39CE6FEAA95E5
S11341601346F6FFB29533B6A5007D16718DB38460
S1134170A5402285CA854E86A68652879128AA84A0
S11341800DCD08444C401040AA95918D33B6A5003E
S113419054447D16718D898D63E1D502EF00D046BC
S11341A0084811C908480C50014681460147EF20D0
S11341B0A07423280400EF00F0552685B250225441
S11341C092540259F249624AD24A424B4561828072
S11341D0011106CE22CC26CA4AC84EC652C456C2C3
S11341E02A84832A45000345C5010589B2842E89A2
S11341F009E5B3D4D40AC1E0E5A026C063F5E6001E
S11342008144B5E8F1A80844330A55419145B359AE
S1134210BA0AB3855901637AB500379500001305CE
S1134220D5FD9305305DEF30A06E084C56958A8518
S11342304E86EF3010120D456366450308449145E0
S1134240338A3541637A4501379500001305D5FD5E
S11342509305B05DEF30C06B084C8A85CE955286CD
S1134260EF30300F0844910AB3B5AA00FD156D8DE7
S1134270B38AAA40B5C40844330A5541B3599A0ACB
S1134280B3855901637AB500379500001305D5FD50
S11342909305305DEF30C067084C5695CA854E864D
S11342A0EF30300B63759A020844338A3441637AE1
S11342B04501379500001305D5FD9305B05DEF303A
S11342C02065084CB30539015286EF309008084444
S11342D0A69AB3B5AA00FD156D8D3385AA4048C0D2
S11342E02685F2406244D2444249B249224A924A63
S11342F005618280011106CE22CC26CA4AC84EC668
S113430052C43689B2892E8A2A84CDC109E83795E8
S113431000001305D5FD9305B03BEF30605F834487
S1134320C401858809E8379500001305D5FD930578
S1134330A02FEF30E05D084433C7342114400C4013
S113434050401C40E39CF6FEAA951346F6FFB29536
S113435033B6A5007D16718DB386A5402285D2851E
S11343604E86BD35AA8415C908444C401040AA9510
S1134370918D33B6A50054447D16718D898D63EEFD
S1134380D500084819C908480C5001468146014720
S1134390CA87EF20606F232804002685F240624418
S11343A0D2444249B249224A0561828037950000CD
S11343B01305D5FD9305A03BEF3080552DF081BF4B
S11343C0011106CE22CC26CA4AC84EC652C456C2D1
S11343D05AC0368A3289AE892A84BDCD59C4034570
S11343E0C40193751500914A81E5118941E9814A17
S11343F063080A0A73700430374B002003254B000E
S113440005052322AB0008444C401040AA95918D29
S113441033B6A5007D16718DB384A54063E39A027B
S11344200C500145EF205015084809C93795000084
S11344301305D5FD93053045EF30804DEF10D0794D
S113444008C803254B007D152322AB000DCD63F076
S11344509A0463FB9A0895A0379500001305D5FDCF
S113446093057042EF30C04A3DF8379500001305BC
S1134470D5FD93058042EF30A04995B7832AC40047
S1134480E31A0AF631A873600430E3E49AFC085096
S11344908145014681465287EF20E03223280400FB
S11344A008444C401040AA95918D33B6A5007D1662
S11344B0718DB384A54063F99A022285CE854A861C
S11344C0A6863D2815C1AA84EF001014484811C9D6
S11344D048480C50014681460147EF20E041232A19
S11344E00400EF00302311A081442685F240624489
S11344F0D2444249B249224A924A024B056182801F
S1134500797106D622D426D24AD04ECE52CC56CA7F
S11345105AC85EC662C42A84032B05000345C5013C
S11345200589B689328A2E8935C50844B30B65419D
S11345309145B3D4BB0AB3856401637AB50037955A
S113454000001305D5FD93053060EF30603C832AED
S11345508401B3856A014800130C41002686EF30BC
S1134560405F0D456369750133059C001146058E56
S1134570D685EF30005E0844110BB335AB00FD1552
S113458012466D8D330BAB40F1193335CA007D15DE
S1134590337AC500B3543A0BB1C80844330A6541B1
S11345A0B3599A0AB3856901637AB5003795000057
S11345B01305D5FD93053060EF3080350C4CDA954A
S11345C04A854E86EF30E05863799A000C4C3305E7
S11345D0390133863441EF30C0570844269BB33544
S11345E0AB00FD156D8D3305AB4008C02685B25078
S11345F0225492540259F249624AD24A424BB24B73
S1134600224C45618280011106CE22CC26CA4AC8BA
S11346104EC62A8409E9379500001305D5FD930594
S11346209049EF30E02E0345C401058949C108448F
S11346304C401040AA95918D33B6A5007D16698E25
S1134640B386C540154763E9E60404403309954041
S11346509145B359B90AB3859900637AB500379582
S113466000001305D5FD93053060EF30602A004C3F
S1134670B3059400280024004E86EF30804D0D458C
S1134680636A250133853401914533863541A2851A
S1134690EF30204C224521A8638AC50037950000DD
S11346A01305D5FD9305E04AEF3080260145F2401D
S11346B06244D2444249B24905618280011106CE66
S11346C022CC26CA4AC84EC63689B289AE842A8408
S11346D0B9CD3DC40345C4010C44504014400A05FF
S11346E011892E96158EB336B600FD16F58DB306D8
S11346F0B6406375D5022285A6854E86113519CD3F
S1134700AA84484809CD48480C50014681460147CF
S1134710CA87EF206037232A040011A0814426852C
S1134720F2406244D2444249B249056182803795DD
S113473000001305D5FD9305704CEF30601D59F84A
S1134740379500001305D5FD9305804CEF30401CD0
S113475051B7411106C622C42A8409E937950000DD
S11347601305D5FD9305B053EF30801A08404C4033
S11347702D8D13351500B240224441018280411130
S113478006C622C426C22A841DCD8344C40139C46A
S1134790084414400C4050401840E39CE6FE8A0450
S11347A09188AA951346F6FFB29533B6A5007D16F7
S11347B0718D898D33B5B40013451500B240224480
S11347C0924441018280379500001305D5FD93057D
S11347D07055EF30E0138344C4015DF83795000051
S11347E01305D5FD9305A02FEF30801255B7411165
S11347F006C622C426C2AE842A841DC1084801CD3F
S113480008480C50014681460147A687EF20C0277F
S1134810232804000545B240224492444101828089
S1134820379500001305D5FD9305F057EF30400E82
S1134830084879F5CDB7411106C622C426C2AE8414
S11348402A841DC1484801CD48480C500146814680
S11348500147A687EF204023232A04000545B240E0
S11348602244924441018280379500001305D5FD0E
S11348709305605AEF30C009484879F5CDB7411126
S113488006C622C42A8409E9379500001305D5FD1C
S113489093059066EF30C0070850B24022444101AE
S11348A08280411106C622C426C22E84AA8421C550
S11348B0884809C9379500001305D5FD9305B067ED
S11348C0EF300005C84809C9379500001305D5FD28
S11348D09305C067EF30C00309C83795000013057E
S11348E0D5FD9305F067EF30A00280D0B24022449A
S11348F0924441018280379500001305D5FD93054C
S11349008067EF30E000884855F56DBF797106D6B1
S113491022D426D24AD04ECE52CC56CA5AC85EC6EB
S113492062C466C23E89BA8AB689B28BAE842A8AC8
S1134930131C26006285EFD00FE315C52A841305E6
S11349404005EFD04FE209CDAA8C130640058145FE
S1134950EFC02FDE23A88C027D5B639A0C0029A490
S11349602285EFD06FE9814C7D5B638F0C1E03A51C
S11349700C039305500A6286EFC0AFDB03A50C035A
S113498033C5AB2071158DC493854C033D4683C656
S113499004002380D50083C6040093B616001337A1
S11349A01600D98E7D1685058504F5D2A3810C04E5
S11349B09D45937405FF63EABA003795000013051B
S11349C035F793056076EF20B074194533D4AA0AFD
S11349D023A68C0223A28C04938A4C005685EFE014
S11349E06F8213858C01EFE0EF8123A89C011345AE
S11349F0740023ACAC0023A29C032685D2854E868A
S1134A00EFC04FC523A0AC00630409002320990123
S1134A10638C0C14737004303745002083254500E3
S1134A2085052322B5003745002083254558850593
S1134A302322B558B745002003A6055715C23745AC
S1134A4000200325C55759E5374500208325055720
S1134A50CC5503A6CC02636FB606232895579DA8B0
S1134A6023A895570325455885456315B50637751D
S1134A700020130405A09D442285EFD07FF7FD1488
S1134A805104FDF837750020130485AC2285EFD05E
S1134A903FF6377500209304C5AD2685EFD05FF54A
S1134AA037750020130505AAEFD09FF43775002051
S1134AB01305C5A8EFD0DFF337750020130545AB08
S1134AC0EFD01FF3374500202328855837450020B1
S1134AD0232A955837450020832585578505232C9F
S1134AE0B55603A5CC02B745002003A64557331697
S1134AF0A62823AAC556B7750020938505A033457B
S1134B00A5203345B520484123A4AC00104523A675
S1134B10CC001045232256012324550103A5CC02C1
S1134B203345A5203345B52023AAAC000C413746B4
S1134B3000208326460085050CC1FD162322D600DD
S1134B4099E273600430374500200325C557054BAF
S1134B5001CD3745002003250557485583A5CC02D0
S1134B606374B500730000005A85B2502254925405
S1134B700259F249624AD24A424BB24B224C924CFD
S1134B8045618280411106C622C426C24AC07370A0
S1134B900430B745002003A645002A84050623A255
S1134BA0C50009E5374500200324055713094400CF
S1134BB04A85EFD0FFE905E54854B7750020938591
S1134BC005A03346A520B345B6208C4189E9B745F5
S1134BD0002003A645573315A64823AAA556085412
S1134BE009C513058401EFD0BFE6374500208325AE
S1134BF085578505232CB5563745002003250557D1
S1134C00B745002083A5C557218D13351500B3344E
S1134C10B000E98C85C0377500201305C5A8CA8586
S1134C20EFD0BFDE374500208325055885052320B6
S1134C30B55825A83745002083254558FD1523225E
S1134C40B55837450020832505598C4191C9032562
S1134C50055948450841B745002023AEA55831A061
S1134C6037450020FD55232EB558374500208325B0
S1134C704500FD152322B500A9C999E40858EFD0D1
S1134C80AFB72285EFD04FB7374500200325C5576E
S1134C901DC537450020032505576312A402374577
S1134CA000200325855811C937950000130535F7F1
S1134CB0856593856591EF20B04573000000B2408F
S1134CC02244924402494101828073600430DDD45D
S1134CD065BF011106CE22CC26CA4AC84EC652C4AC
S1134CE056C22E892A8471C1630C090C37450020F1
S1134CF08325855885052324B558B745002083A40A
S1134D00C558032585588545630BB50037950000C4
S1134D10130535F785659385A593EF20703F0C4007
S1134D203385250133B6A40063F6B400B335B5006A
S1134D30F18D21A0B335B500D18D93C9150008C0FC
S1134D406395090AB745002083AAC558B7450020D2
S1134D5003A90559B745002003AA45593744002043
S1134D6083250457A388050483250457B304954079
S1134D7013854500EFD0DFCD01ED032504574855D9
S1134D80B745002003A645573315A64823AAA556C0
S1134D9003250457D69444C183250457910563FB26
S1134DA054035285EFD0FFC789A03795000013053F
S1134DB035F7856593851593EF209035E31809F24F
S1134DC037950000130535F7856593852593EF2006
S1134DD0303429BF4A85EFD0DFC43745002083250E
S1134DE0C55963F4B400232E95582D2219E173009C
S1134DF0000013C51900F2406244D2444249B2494A
S1134E00224A924A056182803745002083258558CD
S1134E1085052324B5588280011106CE22CC26CAEA
S1134E204AC84EC652C456C237460020032AC65842
S1134E30374600200329065937460020832946595E
S1134E40B74A002003A60A57A308060403A60A5774
S1134E50AE842A8413054600EFD09FBF01ED03A55D
S1134E600A574855B745002003A645573315A648A9
S1134E7023AAA5561335F4FF93B514004D8D29E1EB
S1134E8037750020930545ABD041B746002003A7F2
S1134E90065710C7184683A70657D8C703A706574F
S1134EA01C461107D8C303A70657110718C603A643
S1134EB006574CCA832545AB8505232AB5AA91A07C
S1134EC037450020832505575294C0C183250557D3
S1134ED09105637D44014E85F2406244D2444249C7
S1134EE0B249224A924A05616FD0BFB34A85EFD0D6
S1134EF05FB3374500208325C5596374B400232E5E
S1134F008558F2406244D2444249B249224A924A04
S1134F1005618280411106C622C426C24AC073704C
S1134F200430374500208325450085052322B5003C
S1134F30374400200325845811E9379500001305F0
S1134F4035F785659385B5F9EF20901C03258458C2
S1134F507D152324A4580325845815C10145B7455C
S1134F60002003A645007D1623A2C50019E2736044
S1134F700430B240224492440249410182803745C0
S1134F8000200325455861DD37730020832503AADB
S1134F90F9CD930503AA37460020B77600209386FF
S1134FA006A0B742002037480020854821A00325E9
S1134FB003AA49CDD84558470453404F085704C461
S1134FC0444F005344C04441930787016394F40061
S1134FD01C535CC1232407021C41FD171CC1484714
S1134FE01C47444B88C708475C47C8C3C84093075D
S1134FF047006314F5004847C8C0232A07008840C7
S11350007D1588C0485783244657B394A428232A7F
S113501096563345A5203345D520484108C7044555
S113502044C70445DCC01CC548573345A520334557
S1135030D52048CB1C4185071CC1485783A702577C
S1135040DC57E3F6A7F6232C185995B70DC337455B
S11350500020832505598C4191C5032505594845F0
S1135060084111A07D55B745002023AEA55837450A
S113507000200324455A0DC037490020854419A057
S11350807D1419C4EF00300A65DD232C9958CDBF77
S1135090374500202322055A37450020032585592A
S11350A0E30F05EA37450020032505577300000088
S11350B0054575B579C1011106CE22CC26CA4AC868
S11350C04EC652C42A843745002083258558850559
S11350D02324B558032585588545630BB5003795BA
S11350E00000130535F7856593850599EF20500277
S11350F037450020032AC5583745002003290559A0
S11351003745002083294559B744002003A5045797
S1135110A308050403A504571105EFD07F9301EDFF
S113512003A504574855B745002003A64557331532
S1135130A64823AAA55603A50457529440C183A5A3
S113514004579105637644014E85EFD09F8D21A8C5
S11351504A85EFD01F8D374500208325C5596374D8
S1135160B400232E85587D33F2406244D244424930
S1135170B249224A056111C1828073000000828015
S1135180411106C622C42A8411E93795000013058B
S113519035F785659385259CEF208077374500207A
S11351A003250557630E85067370043037470020C6
S11351B083274700138517002322A7004C4808546F
S11351C03746002003260659B746002083A64659D1
S11351D02322F70099E37360043037770020130724
S11351E007AA630DE5022D8E13351600AD8E13B696
S11351F01600498E094515E637760020130646AB9E
S11352006385C502377500201305C5A82D8D133598
S1135210150093B51500C98D114581E5054511A00B
S11352200145B2402244410182800C54FDF90345FA
S113523004057D151335150013453500DDB773706E
S11352400430374600208325460093861500232228
S1135250D60009E537450020032505574855232284
S1135260B60091C1828073600430828019C14855B0
S11352708280374500200325055748558280737086
S113528004303746002083254600938615002322E8
S1135290D60009E537450020032505576841232238
S11352A0B60091C1828073600430828019C1684164
S11352B0828037450020032505576841828001110B
S11352C006CE22CC26CA4AC84EC61D46AE842A84BF
S11352D063EBC50037950000130535F785659385A5
S11352E0C5ADEF20E06273700430B745002003A61B
S11352F04500194533D5A40A050623A2C50009C4EF
S11353006C40639AA500B5A8B745002003A40557CF
S11353106C406388A506374600200326065763FEC3
S1135320A5006300C40237460020032606575056E2
S11353303336A6001349160031A0218E3339C0003C
S113534011A005494454A58D93B5150033B6A400A6
S1135350D18D91C148D40C4C68C063C50500134578
S1135360750008CC4848B7750020938505A033C65E
S11353709420B345B6206307B50263140900730093
S113538000003745002083254500FD152322B50084
S113539099E173600430F2406244D2444249B24914
S11353A005618280930944004E85EFD06FEA09E9D4
S11353B03745002083254557B3959548232AB5568C
S11353C04854B745002003A645573316A62823AAF8
S11353D0C556B7750020938505A03345A5203345F0
S11353E0B520484108C4104550C410452322360155
S11353F02324350148543345A5203345B52048C8F6
S11354000C4185050CC1E30C09F6A5BF411106C684
S113541022C426C273700430B745002003A6450099
S11354202A84050623A2C50009E537450020032484
S11354300557930444002685EFD08FE105E54854D1
S1135440B7750020938505A03346A520B345B62043
S11354508C4189E9B745002003A645573315A64872
S113546023AAA556085409C513058401EFD04FDEBD
S113547037750020130545ABA685EFD00FD903453A
S1135480040585456314B50023080404374500204A
S113549083254500FD152322B50099E1736004308E
S11354A0374500200325C55721C173700430B74523
S11354B0002003A545001306150023A2C5003746A6
S11354C0002083260659944291C603260659504665
S11354D0104211A07D56B746002023AEC65823A221
S11354E0A50019E1736004303745002003250557F2
S11354F06316A404374500200325C55715C1374555
S113550000200325855811C937950000130535F788
S11355108565938515CAEF20A03F7300000039A864
S113552037750020032545ABB745002083A54558B2
S1135530631BB5003745002023280556B24022449A
S1135540924441018280B24022449244410109A024
S1135550374500200325855819C537450020854562
S1135560232CB5588280411106C622C426C2374571
S11355700020232C055837450020832505578C59D6
S1135580944137A6A5A51306565A639FC600D44175
S1135590639CC600944537A6A5A51306565A639581
S11355A0C600CC45638AC5008325055703250557E6
S11355B093854503EF20E035374500200325455703
S11355C0131505601345F501B7750020938505A0F3
S11355D03344A520B344B420884011E93795000032
S11355E0130535F7856593856540EF206032C84023
S11355F04C411385440013868400CCC0639AC500D3
S1135600B7750020938505A0B345B420CC450CC1E3
S113561008414845B745002023A8A55603A50557CA
S1135620B2402244924441018280411106C622C400
S113563026C24AC02A8411E937950000130535F7BC
S11356408565938595D1EF20A02C3745002003254F
S11356500557218D13351500933514004D8D55E1F3
S113566073700430B744002003A54400050523A249
S1135670A4004848B7750020938545AB631BB50665
S1135680085425E90345040585456304B506130953
S113569044004A85EFD0CFBB4854B745002003A649
S11356A045573316A62823AAC556B77500209385F7
S11356B005A03345A5203345B520484108C410450D
S11356C050C4104523222601232425014854334580
S11356D0A5203345B52048C80C4185050CC1374584
S11356E000200325055748554C546374B5007300D6
S11356F0000003A544007D1523A2A40019E17360F2
S11357000430B24022449244024941018280411152
S113571006C622C426C24AC02A8405E13795000081
S1135720930435F70569930579D52685EF20401E46
S1135730930559CD2685EF20A01D4848B775002054
S1135740938545AB6316B50208541DE10345040572
S11357508545630FB50037450020032585580DC1E5
S11357609305840137750020130505AAEFD0EFA92E
S113577081442685B24022449244024941018280F8
S11357804854B745002083A50557CC5563F8A500B8
S1135790374500208544232C955811A081441309D2
S11357A044004A85EFD0CFAA4854B745002003A649
S11357B045573316A62823AAC556B77500209385E6
S11357C005A03345A5203345B520484108C41045FC
S11357D050C410452322260123242501485433456F
S11357E0A5203345B52048C80C4185050CC151B7E7
S11357F0011106CE2308010037454C451305954495
S11358002AC637750000130545EBB745002093877A
S1135810055A6C001306000881460147EFF00F8F0C
S113582085456314B500EF104071FD556307B5025B
S11358308545631DB50273700430374500207D56DD
S1135840232EC55837450020232EB5563745002052
S113585023260558EFC05F8411A83795000013056F
S113586035F78565938545EAEF20800A3795000072
S113587003254507F24005618280011106CE22CC42
S113588026CA4AC84EC652C4EF10B03AEFF08FAFE2
S1135890374500200325055AEFF0CFAE37490020E5
S11358A00325095835C1B7440020B7790020374A89
S11358B0002011A80858EFC02FF42285EFC0CFF3C1
S11358C00325095831C17370043003A5440083A52E
S11358D089A9050523A2A400C04513054400EFD0FF
S11358E02F9703254A587D152322AA5803250958C2
S11358F07D152320A95803A544007D1523A2A400E7
S113590055F9736004307DB7737004303745002057
S1135910232E0556F2406244D2444249B249224AF7
S113592005616FC04FFA374500200325855811C91A
S1135930B745002003A6455A0145050623A2C55ACA
S11359408280411106C622C426C2374500200324A2
S1135950C5580504232685582DE0B744002003A527
S11359600459084111C937950000130535F78565B9
S11359709385B526EF10D07903A50459B7450020C7
S113598003A6455923A8C45823AAA558374500207F
S11359908325855A85052324B55A03A5045908414E
S11359A001C937450020032505594845084111A080
S11359B07D55B745002023AEA55837450020032563
S11359C0C5596374A4000145E1A8B742002003A5AA
S11359D0025908417D5869C1014537430020B77514
S11359E00020138705A0B748002029A083A50259E9
S11359F08C41DDC183A50259CC45CC45DC41636CA7
S1135A00F408DC459045C4491CC69045DC45D0C328
S1135A10D040938745006314F600D045D0C023AA34
S1135A20050090407D1690C084559DC09051D44D82
S1135A3090C6D04D9451D0C2D04093868501631452
S1135A40D6009051D0C023A4050290407D1690C08A
S1135A50D05583264357B396C628232AD3563346B4
S1135A60C6203346E620504290C51446D4C5144699
S1135A70DCC21CC6D0553346C6203346E620D0C906
S1135A801442850614C2CC5503A608575056E37F2A
S1135A90B6F40545A1BF3E88B745002023AE05599D
S1135AA0B745002083A50557CC553776002013064B
S1135AB006A0B3C5B520B3C5C5208C410546B24088
S1135AC02244924441016373B6000545B745002062
S1135AD083A58559E38605E6054582803745002080
S1135AE00325C5588280374500200325C558828088
S1135AF037450020032545588280411106C622C43B
S1135B002A8401C901CC13054403B2402244410153
S1135B108280374500200324055775F4379500002B
S1135B20130535F7856593855506EF10705EE1BF63
S1135B30411106C622C426C24AC02A89EF20401059
S1135B40C145636BB50037950000130535F78565CE
S1135B509385F50BEF10D05B3745002083258558DE
S1135B6085052324B5589D4837750020130805A0E2
S1135B7001A8014413351400B33510016D8D25C1FE
S1135B80FD1833C51821B346052188427DD1D0467E
S1135B90A106E300D6FE584681448147014429A862
S1135BA02D8D13351500B335B00093B4F700850778
S1135BB0E58D6D8DA28419CD3305F700834545032A
S1135BC091E13A843305F90003450500E38AA5FC15
S1135BD02684F9B745F05042E31FD6FA59BF25E0B1
S1135BE03745002083250559884129C9C8451388AC
S1135BF0850063050505504501478145014429A8F1
S1135C00BD8C93B614003337F00093B7F5008505C7
S1135C107D8FF98E228799CEB307B60083C74703D9
S1135C2091E33284B306B90083C40600E38A97FC87
S1135C303A84F9B709E44841E31F05FB014425E030
S1135C403745002083254559884129C9C84513880B
S1135C50850063050505504501478145014429A890
S1135C60BD8C93B614003337F00093B7F500850567
S1135C707D8FF98E228799CEB307B60083C7470379
S1135C8091E33284B306B90083C40600E38A97FC27
S1135C903A84F9B709E44841E31F05FB014435E4BC
S1135CA037750020832545AB130645AB484693B6AC
S1135CB01500130886003346050113361600558E69
S1135CC021E6504501478145014429A8BD8C93B67E
S1135CD014003337F00093B7F50085057D8FF98EF6
S1135CE0228799CEB307B60083C7470391E3328472
S1135CF0B306B90083C40600E38A97FC3A84F9B773
S1135D0009E44841E31F05FB014435E437750020ED
S1135D108325C5A81306C5A8484693B615001308DD
S1135D2086003346050113361600558E21E650458C
S1135D3001478145014429A8BD8C93B6140033372B
S1135D40F00093B7F50085057D8FF98E228799CEF3
S1135D50B307B60083C7470391E33284B306B9009F
S1135D6083C40600E38A97FC3A84F9B709E44841FE
S1135D70E31F05FB0144EFF0EF992285B240224472
S1135D809244024941018280411106C622C426C2BE
S1135D90B744002083A584582A8491C9379500000C
S1135DA0130535F785659385A51DEF10703603A59A
S1135DB08458050523A4A458737004303745002083
S1135DC003254500B745002003A6455A229623A281
S1135DD0C55A19E173600430B2402244924441012F
S1135DE06FF04F93411106C622C426C24AC02A84CA
S1135DF009C9374500208325855885052324B558CE
S1135E003DA037950000930435F705699305791F84
S1135E102685EF10F02F374500208325855885050A
S1135E202324B5589305299C2685EF10702E3745F9
S1135E30002003250557630085107370043037472D
S1135E40002083274700138517002322A700484812
S1135E500C543746002003260659B746002083A673
S1135E6046592322F70099E3736004303777002002
S1135E70130707AA6381E50C298E93351600A98EB2
S1135E8013B61600D18DD5C1130944004A85EFC05D
S1135E903FBC73700430B744002003A544000505DB
S1135EA023A2A400085401C913058401EFC05FBAFA
S1135EB00545A308A40403A544007D1523A2A4005A
S1135EC019E1736004304854B745002003A64557D0
S1135ED03316A62823AAC556B7750020938505A0B6
S1135EE03345A5203345B520484108C4104550C466
S1135EF01045232226012324250148543345A52097
S1135F003345B52048C80C4185050CC14854B745F4
S1135F10002083A50557CC55054463FFA5003745EC
S1135F2000200544232C855801A8B77500209385CB
S1135F3045AB630CB5000144EFE0DFFD2285B240C0
S1135F4022449244024941018280085415FD0345CC
S1135F5004058545E30AB5F2F9BF411106C622C41A
S1135F6026C22E84AA8411E937950000130535F75B
S1135F7085659385C548EF10B01937450020832502
S1135F800557E1052685EFC0DFA985452285B24086
S1135F902244924441016FE03FE8411106C622C405
S1135FA026C24AC032892E84AA8411E9379500009A
S1135FB0130535F785659385A54AEF1070153745A8
S1135FC000200325855811E937950000130535F79E
S1135FD085659385E54AEF10B01337450020832586
S1135FE005571316F42990CDCC40032605574CCE03
S1135FF090458326055790D203260557944561069C
S1136000D0C203260557610690C50325055704D55C
S113601088400505854588C04A85B240224492449B
S1136020024941016FE05FDF411106C622C426C266
S11360304AC032842E89AA8411E9379500001305D9
S113604035F785659385A54CEF10900CC840B7458E
S1136050002003A6055748CE104583A6055790D2C5
S113606003A6055714456106D0C203A60557610669
S113607010C503A5055704D58840930515001335AD
S113608014007D15336525018CC0A285B2402244DD
S11360909244024941016FE03FD8411106C622C42F
S11360A04845404511E837950000130535F78565E7
S11360B093851550EF10D0050850504C0C5408C669
S11360C0484C105048C2D041130584016314A60003
S11360D01050D0C12324040290417D1690C1B745CD
S11360E0002083A5855891CDB7750020938505AA16
S11360F0D04150CC144614D01446C8C208C60CD49F
S113610095A0484410444C4808C60844504448C22A
S1136110D041130544006314A6005044D0C1232A7F
S1136120040090417D1690C14C54374600208326CC
S11361304657B396B628232AD65637760020130638
S113614006A0B3C5B520B3C5C520CC410CC4944545
S113615054C49445C8C288C548543345A520B345A2
S1136160C5204CC88841050588C14854B74500205E
S113617083A50557CC5563F8A500B7450020054510
S113618023ACA55811A00145B240224441018280AC
S1136190411106C622C426C24AC03746002003263F
S11361A086582E892A8411EA37950000130535F79D
S11361B085659385F554EF10A07544441315F929AA
S11361C008C091E837950000130535F78565938578
S11361D0A555EF10E0730C44504008480CC64C40E1
S11361E010444CC24C41639485000C444CC1232898
S11361F004000C41FD150CC1C8449044CC4808C6A9
S11362008844D04448C2D041138544006314A60096
S1136210D044D0C123AA040090417D1690C1CC542F
S11362203746002083264657B396B628232AD656E7
S113623037760020130606A0B3C5B520B3C5C52024
S1136240CC418CC49445D4C49445C8C288C5C854B0
S11362503345A5203345C520C8C80C4185050CC16C
S1136260C854B745002083A50557CC5563F7A5004E
S1136270374500208545232CB558B240224492442A
S1136280024941018280411106C622C42A8411E9CF
S113629037950000130535F7856593852559EF106B
S11362A02067737004303745002083254500850539
S11362B02322B500B745002083A5855A0CC0B745F5
S11362C0002083A5C5584CC083254500FD15232215
S11362D0B50099E173600430B240224441018280E8
S11362E0B745002083A5855A0CC1B745002083A576
S11362F0C5584CC18280411106C622C426C2AE8450
S11363002A8405CDA9C47370043037450020832541
S1136310450085052322B500374500200325C558CF
S11363204C40374600208326065783C6160595CA77
S113633003250657A308050485A83795000013050F
S113634035F785659385155BEF10805CCDFC37953B
S11363500000130535F785659385255BEF10405BD9
S11363605DB79040FD566301D606B746002083A66C
S1136370865A1840B98E93B616003337B500D98EB5
S113638095C20D8D6370C502098E90C037450020FB
S11363900325855A08C0374500208325C558014583
S11363A04CC021A023A004000545B745002003A646
S11363B045007D1623A2C50019E273600430B24083
S11363C022449244410182800145C5B737450020EB
